{
	"data": {
		"bytecode": {
			"linkReferences": {},
			"object": "608060405234801561001057600080fd5b50613214806100206000396000f3fe60806040523480156200001157600080fd5b50600436106200006a5760003560e01c80634b2e3ccb146200006f578063751381e4146200009157806375c8322f14620000c75780639254253e14620000fd578063bcda6b9f146200011d578063fedd6987146200013d575b600080fd5b620000796200015f565b6040516200008891906200058e565b60405180910390f35b620000af6004803603810190620000a991906200046c565b620001c6565b604051620000be91906200058e565b60405180910390f35b620000e56004803603810190620000df91906200046c565b620001f9565b604051620000f491906200058e565b60405180910390f35b6200011b60048036038101906200011591906200049e565b6200022c565b005b6200013b6004803603810190620001359190620004fa565b620002f2565b005b62000147620003bc565b6040516200015691906200058e565b60405180910390f35b6000600160003373ffffffffffffffffffffffffffffffffffffffff1673ffffffffffffffffffffffffffffffffffffffff16815260200190815260200160002060009054906101000a900473ffffffffffffffffffffffffffffffffffffffff16905090565b60006020528060005260406000206000915054906101000a900473ffffffffffffffffffffffffffffffffffffffff1681565b60016020528060005260406000206000915054906101000a900473ffffffffffffffffffffffffffffffffffffffff1681565b600083838333604051620002409062000422565b6200024f9493929190620005ab565b604051809103906000f0801580156200026c573d6000803e3d6000fd5b509050806000803373ffffffffffffffffffffffffffffffffffffffff1673ffffffffffffffffffffffffffffffffffffffff16815260200190815260200160002060006101000a81548173ffffffffffffffffffffffffffffffffffffffff021916908373ffffffffffffffffffffffffffffffffffffffff16021790555050505050565b60008484848433604051620003079062000430565b62000317959493929190620005f8565b604051809103906000f08015801562000334573d6000803e3d6000fd5b50905080600160003373ffffffffffffffffffffffffffffffffffffffff1673ffffffffffffffffffffffffffffffffffffffff16815260200190815260200160002060006101000a81548173ffffffffffffffffffffffffffffffffffffffff021916908373ffffffffffffffffffffffffffffffffffffffff1602179055505050505050565b60008060003373ffffffffffffffffffffffffffffffffffffffff1673ffffffffffffffffffffffffffffffffffffffff16815260200190815260200160002060009054906101000a900473ffffffffffffffffffffffffffffffffffffffff16905090565b611a6080620006cd83390190565b6110b2806200212d83390190565b6000813590506200044f8162000698565b92915050565b6000813590506200046681620006b2565b92915050565b60006020828403121562000485576200048462000693565b5b600062000495848285016200043e565b91505092915050565b600080600060608486031215620004ba57620004b962000693565b5b6000620004ca868287016200043e565b9350506020620004dd8682870162000455565b9250506040620004f08682870162000455565b9150509250925092565b6000806000806080858703121562000517576200051662000693565b5b600062000527878288016200043e565b94505060206200053a8782880162000455565b93505060406200054d8782880162000455565b9250506060620005608782880162000455565b91505092959194509250565b620005778162000655565b82525050565b620005888162000689565b82525050565b6000602082019050620005a560008301846200056c565b92915050565b6000608082019050620005c260008301876200056c565b620005d160208301866200057d565b620005e060408301856200057d565b620005ef60608301846200056c565b95945050505050565b600060a0820190506200060f60008301886200056c565b6200061e60208301876200057d565b6200062d60408301866200057d565b6200063c60608301856200057d565b6200064b60808301846200056c565b9695505050505050565b6000620006628262000669565b9050919050565b600073ffffffffffffffffffffffffffffffffffffffff82169050919050565b6000819050919050565b600080fd5b620006a38162000655565b8114620006af57600080fd5b50565b620006bd8162000689565b8114620006c957600080fd5b5056fe60e06040523480156200001157600080fd5b5060405162001a6038038062001a608339818101604052810190620000379190620000ec565b8373ffffffffffffffffffffffffffffffffffffffff1660808173ffffffffffffffffffffffffffffffffffffffff1660601b815250508260a08181525050816001819055508073ffffffffffffffffffffffffffffffffffffffff1660c08173ffffffffffffffffffffffffffffffffffffffff1660601b8152505050505050620001d5565b600081519050620000cf81620001a1565b92915050565b600081519050620000e681620001bb565b92915050565b600080600080608085870312156200010957620001086200019c565b5b60006200011987828801620000be565b94505060206200012c87828801620000d5565b93505060406200013f87828801620000d5565b92505060606200015287828801620000be565b91505092959194509250565b60006200016b8262000172565b9050919050565b600073ffffffffffffffffffffffffffffffffffffffff82169050919050565b6000819050919050565b600080fd5b620001ac816200015e565b8114620001b857600080fd5b50565b620001c68162000192565b8114620001d257600080fd5b50565b60805160601c60a05160c05160601c6118016200025f600039600081816102550152818161076f015281816108d201528181610b640152610e5f0152600081816108f40152818161099301528181610b8501528181610c3a0152610d400152600081816107110152818161089601528181610b2701528181610bfe0152610ce001526118016000f3fe6080604052600436106100a75760003560e01c80637cc3ae8c116100645780637cc3ae8c1461017957806391f90157146101a4578063be9a6555146101cf578063c6bc5182146101e6578063d57bde7914610211578063efbe1c1c1461023c576100a7565b806308551a53146100ac57806312fa6feb146100d75780631998aeef146101025780631f2698ab1461010c5780633ccfd60b1461013757806347ccca021461014e575b600080fd5b3480156100b857600080fd5b506100c1610253565b6040516100ce9190611202565b60405180910390f35b3480156100e357600080fd5b506100ec610277565b6040516100f991906112c2565b60405180910390f35b61010a61028a565b005b34801561011857600080fd5b506101216104a1565b60405161012e91906112c2565b60405180910390f35b34801561014357600080fd5b5061014c6104b4565b005b34801561015a57600080fd5b5061016361070f565b60405161017091906112dd565b60405180910390f35b34801561018557600080fd5b5061018e610733565b60405161019b919061145c565b60405180910390f35b3480156101b057600080fd5b506101b9610747565b6040516101c691906111e7565b60405180910390f35b3480156101db57600080fd5b506101e461076d565b005b3480156101f257600080fd5b506101fb610991565b6040516102089190611418565b60405180910390f35b34801561021d57600080fd5b506102266109b5565b6040516102339190611418565b60405180910390f35b34801561024857600080fd5b506102516109bb565b005b7f000000000000000000000000000000000000000000000000000000000000000081565b600060059054906101000a900460ff1681565b600060049054906101000a900460ff166102d9576040517f08c379a00000000000000000000000000000000000000000000000000000000081526004016102d090611398565b60405180910390fd5b60008054906101000a900463ffffffff1663ffffffff164210610331576040517f08c379a0000000000000000000000000000000000000000000000000000000008152600401610328906113b8565b60405180910390fd5b600034600260003373ffffffffffffffffffffffffffffffffffffffff1673ffffffffffffffffffffffffffffffffffffffff1681526020019081526020016000205461037e9190611493565b905060015481116103c4576040517f08c379a00000000000000000000000000000000000000000000000000000000081526004016103bb90611318565b60405180910390fd5b8060018190555080600260003373ffffffffffffffffffffffffffffffffffffffff1673ffffffffffffffffffffffffffffffffffffffff1681526020019081526020016000208190555033600060066101000a81548173ffffffffffffffffffffffffffffffffffffffff021916908373ffffffffffffffffffffffffffffffffffffffff1602179055503373ffffffffffffffffffffffffffffffffffffffff167fe684a55f31b79eca403df938249029212a5925ec6be8012e099b45bc1019e5d2346040516104969190611418565b60405180910390a250565b600060049054906101000a900460ff1681565b600060069054906101000a900473ffffffffffffffffffffffffffffffffffffffff1673ffffffffffffffffffffffffffffffffffffffff163373ffffffffffffffffffffffffffffffffffffffff161415610545576040517f08c379a000000000000000000000000000000000000000000000000000000000815260040161053c906112f8565b60405180910390fd5b6000600260003373ffffffffffffffffffffffffffffffffffffffff1673ffffffffffffffffffffffffffffffffffffffff168152602001908152602001600020549050600081116105cc576040517f08c379a00000000000000000000000000000000000000000000000000000000081526004016105c390611378565b60405180910390fd5b6000600260003373ffffffffffffffffffffffffffffffffffffffff1673ffffffffffffffffffffffffffffffffffffffff1681526020019081526020016000208190555060003373ffffffffffffffffffffffffffffffffffffffff1682604051610637906111d2565b60006040518083038185875af1925050503d8060008114610674576040519150601f19603f3d011682016040523d82523d6000602084013e610679565b606091505b50509050806106bd576040517f08c379a00000000000000000000000000000000000000000000000000000000081526004016106b4906113d8565b60405180910390fd5b3373ffffffffffffffffffffffffffffffffffffffff167f884edad9ce6fa2440d8a54cc123490eb96d2768479d49ff9c7366125a9424364836040516107039190611418565b60405180910390a25050565b7f000000000000000000000000000000000000000000000000000000000000000081565b60008054906101000a900463ffffffff1681565b600060069054906101000a900473ffffffffffffffffffffffffffffffffffffffff1681565b7f000000000000000000000000000000000000000000000000000000000000000073ffffffffffffffffffffffffffffffffffffffff163373ffffffffffffffffffffffffffffffffffffffff16146107fb576040517f08c379a00000000000000000000000000000000000000000000000000000000081526004016107f290611338565b60405180910390fd5b600060049054906101000a900460ff161561084b576040517f08c379a000000000000000000000000000000000000000000000000000000000815260040161084290611358565b60405180910390fd5b6001600060046101000a81548160ff0219169083151502179055506203f480426108759190611493565b6000806101000a81548163ffffffff021916908363ffffffff1602179055507f000000000000000000000000000000000000000000000000000000000000000073ffffffffffffffffffffffffffffffffffffffff166323b872dd7f0000000000000000000000000000000000000000000000000000000000000000307f00000000000000000000000000000000000000000000000000000000000000006040518463ffffffff1660e01b81526004016109319392919061121d565b600060405180830381600087803b15801561094b57600080fd5b505af115801561095f573d6000803e3d6000fd5b505050507f1b55ba3aa851a46be3b365aee5b5c140edd620d578922f3e8466d2cbd96f954b60405160405180910390a1565b7f000000000000000000000000000000000000000000000000000000000000000081565b60015481565b600060049054906101000a900460ff16610a0a576040517f08c379a0000000000000000000000000000000000000000000000000000000008152600401610a0190611398565b60405180910390fd5b600060059054906101000a900460ff1615610a5a576040517f08c379a0000000000000000000000000000000000000000000000000000000008152600401610a51906113b8565b60405180910390fd5b60008054906101000a900463ffffffff1663ffffffff16421015610ab3576040517f08c379a0000000000000000000000000000000000000000000000000000000008152600401610aaa906113f8565b60405180910390fd5b6001600060056101000a81548160ff021916908315150217905550600073ffffffffffffffffffffffffffffffffffffffff16600060069054906101000a900473ffffffffffffffffffffffffffffffffffffffff1673ffffffffffffffffffffffffffffffffffffffff161415610bf9577f000000000000000000000000000000000000000000000000000000000000000073ffffffffffffffffffffffffffffffffffffffff166323b872dd307f00000000000000000000000000000000000000000000000000000000000000007f00000000000000000000000000000000000000000000000000000000000000006040518463ffffffff1660e01b8152600401610bc293929190611254565b600060405180830381600087803b158015610bdc57600080fd5b505af1158015610bf0573d6000803e3d6000fd5b50505050610f2d565b6000807f000000000000000000000000000000000000000000000000000000000000000073ffffffffffffffffffffffffffffffffffffffff16632a55205a7f00000000000000000000000000000000000000000000000000000000000000006001546040518363ffffffff1660e01b8152600401610c79929190611433565b604080518083038186803b158015610c9057600080fd5b505afa158015610ca4573d6000803e3d6000fd5b505050506040513d601f19601f82011682018060405250810190610cc89190610fcb565b91509150600081600154610cdc91906114e9565b90507f000000000000000000000000000000000000000000000000000000000000000073ffffffffffffffffffffffffffffffffffffffff166323b872dd30600060069054906101000a900473ffffffffffffffffffffffffffffffffffffffff167f00000000000000000000000000000000000000000000000000000000000000006040518463ffffffff1660e01b8152600401610d7d9392919061128b565b600060405180830381600087803b158015610d9757600080fd5b505af1158015610dab573d6000803e3d6000fd5b5050505060008373ffffffffffffffffffffffffffffffffffffffff1683604051610dd5906111d2565b60006040518083038185875af1925050503d8060008114610e12576040519150601f19603f3d011682016040523d82523d6000602084013e610e17565b606091505b5050905080610e5b576040517f08c379a0000000000000000000000000000000000000000000000000000000008152600401610e52906113d8565b60405180910390fd5b60007f000000000000000000000000000000000000000000000000000000000000000073ffffffffffffffffffffffffffffffffffffffff1683604051610ea1906111d2565b60006040518083038185875af1925050503d8060008114610ede576040519150601f19603f3d011682016040523d82523d6000602084013e610ee3565b606091505b5050905080610f27576040517f08c379a0000000000000000000000000000000000000000000000000000000008152600401610f1e906113d8565b60405180910390fd5b50505050505b600060069054906101000a900473ffffffffffffffffffffffffffffffffffffffff1673ffffffffffffffffffffffffffffffffffffffff167f7d7570b046e5ead3a4f3fbc9fa2445113625a1e79823776146316bafed6b8cc5600154604051610f979190611418565b60405180910390a2565b600081519050610fb08161179d565b92915050565b600081519050610fc5816117b4565b92915050565b60008060408385031215610fe257610fe16115fe565b5b6000610ff085828601610fa1565b925050602061100185828601610fb6565b9150509250929050565b61101481611587565b82525050565b6110238161152f565b82525050565b6110328161151d565b82525050565b61104181611541565b82525050565b61105081611599565b82525050565b6000611063601c83611482565b915061106e82611603565b602082019050919050565b6000611086602483611482565b91506110918261162c565b604082019050919050565b60006110a9601d83611482565b91506110b48261167b565b602082019050919050565b60006110cc600f83611482565b91506110d7826116a4565b602082019050919050565b60006110ef601883611482565b91506110fa826116cd565b602082019050919050565b6000611112600083611477565b915061111d826116f6565b600082019050919050565b6000611135600b83611482565b9150611140826116f9565b602082019050919050565b6000611158600583611482565b915061116382611722565b602082019050919050565b600061117b601283611482565b91506111868261174b565b602082019050919050565b600061119e600983611482565b91506111a982611774565b602082019050919050565b6111bd8161156d565b82525050565b6111cc81611577565b82525050565b60006111dd82611105565b9150819050919050565b60006020820190506111fc6000830184611029565b92915050565b6000602082019050611217600083018461101a565b92915050565b6000606082019050611232600083018661100b565b61123f6020830185611029565b61124c60408301846111b4565b949350505050565b60006060820190506112696000830186611029565b611276602083018561100b565b61128360408301846111b4565b949350505050565b60006060820190506112a06000830186611029565b6112ad6020830185611029565b6112ba60408301846111b4565b949350505050565b60006020820190506112d76000830184611038565b92915050565b60006020820190506112f26000830184611047565b92915050565b6000602082019050818103600083015261131181611056565b9050919050565b6000602082019050818103600083015261133181611079565b9050919050565b600060208201905081810360008301526113518161109c565b9050919050565b60006020820190508181036000830152611371816110bf565b9050919050565b60006020820190508181036000830152611391816110e2565b9050919050565b600060208201905081810360008301526113b181611128565b9050919050565b600060208201905081810360008301526113d18161114b565b9050919050565b600060208201905081810360008301526113f18161116e565b9050919050565b6000602082019050818103600083015261141181611191565b9050919050565b600060208201905061142d60008301846111b4565b92915050565b600060408201905061144860008301856111b4565b61145560208301846111b4565b9392505050565b600060208201905061147160008301846111c3565b92915050565b600081905092915050565b600082825260208201905092915050565b600061149e8261156d565b91506114a98361156d565b9250827fffffffffffffffffffffffffffffffffffffffffffffffffffffffffffffffff038211156114de576114dd6115cf565b5b828201905092915050565b60006114f48261156d565b91506114ff8361156d565b925082821015611512576115116115cf565b5b828203905092915050565b60006115288261154d565b9050919050565b600061153a8261154d565b9050919050565b60008115159050919050565b600073ffffffffffffffffffffffffffffffffffffffff82169050919050565b6000819050919050565b600063ffffffff82169050919050565b6000611592826115ab565b9050919050565b60006115a4826115ab565b9050919050565b60006115b6826115bd565b9050919050565b60006115c88261154d565b9050919050565b7f4e487b7100000000000000000000000000000000000000000000000000000000600052601160045260246000fd5b600080fd5b7f68696768657374206269646465722063616e7420776974686472617700000000600082015250565b7f6f6e6c7920616d6f756e742067726561746572207468616e206869676865737460008201527f2062696400000000000000000000000000000000000000000000000000000000602082015250565b7f6f6e6c792073656c6c65722063616e2073746172742061756374696f6e000000600082015250565b7f616c726561647920737461727465640000000000000000000000000000000000600082015250565b7f6e6f206269642066726f6d207468697320616464726573730000000000000000600082015250565b50565b7f6e6f742073746172746564000000000000000000000000000000000000000000600082015250565b7f656e646564000000000000000000000000000000000000000000000000000000600082015250565b7f7472616e73616374696f6e206661696c65640000000000000000000000000000600082015250565b7f6e6f7420656e6465640000000000000000000000000000000000000000000000600082015250565b6117a68161151d565b81146117b157600080fd5b50565b6117bd8161156d565b81146117c857600080fd5b5056fea264697066735822122080e98de014df0510e6c3247ba56745ed6d6d86e405388c66def5f67d7dcdc5e164736f6c634300080700336101606040523480156200001257600080fd5b50604051620010b2380380620010b2833981810160405281019062000038919062000170565b6203f48082620000499190620002af565b8310156200008e576040517f08c379a000000000000000000000000000000000000000000000000000000000815260040162000085906200021f565b60405180910390fd5b8473ffffffffffffffffffffffffffffffffffffffff1660808173ffffffffffffffffffffffffffffffffffffffff1660601b815250508360a081815250508260e081815250508161014081815250508073ffffffffffffffffffffffffffffffffffffffff1660c08173ffffffffffffffffffffffffffffffffffffffff1660601b815250504261010081815250506203f480426200012f919062000252565b61012081815250505050505050620003df565b6000815190506200015381620003ab565b92915050565b6000815190506200016a81620003c5565b92915050565b600080600080600060a086880312156200018f576200018e6200037d565b5b60006200019f8882890162000142565b9550506020620001b28882890162000159565b9450506040620001c58882890162000159565b9350506060620001d88882890162000159565b9250506080620001eb8882890162000142565b9150509295509295909350565b600062000207601d8362000241565b9150620002148262000382565b602082019050919050565b600060208201905081810360008301526200023a81620001f8565b9050919050565b600082825260208201905092915050565b60006200025f8262000344565b91506200026c8362000344565b9250827fffffffffffffffffffffffffffffffffffffffffffffffffffffffffffffffff03821115620002a457620002a36200034e565b5b828201905092915050565b6000620002bc8262000344565b9150620002c98362000344565b9250817fffffffffffffffffffffffffffffffffffffffffffffffffffffffffffffffff04831182151516156200030557620003046200034e565b5b828202905092915050565b60006200031d8262000324565b9050919050565b600073ffffffffffffffffffffffffffffffffffffffff82169050919050565b6000819050919050565b7f4e487b7100000000000000000000000000000000000000000000000000000000600052601160045260246000fd5b600080fd5b7f7374617274696e67207072696365203c20646973636f756e7452617465000000600082015250565b620003b68162000310565b8114620003c257600080fd5b50565b620003d08162000344565b8114620003dc57600080fd5b50565b60805160601c60a05160c05160601c60e051610100516101205161014051610c2c620004866000396000818161028f015261074d01526000818161023701526102ef01526000818161025e01526107050152600081816102bd01526107290152600081816101ef015281816103dc01526106a80152600081816103fe0152818161056a01526106e1015260008181610213015281816103a0015261052e0152610c2c6000f3fe6080604052600436106100865760003560e01c8063a6f2ae3a11610059578063a6f2ae3a14610137578063c6bc518214610141578063c74465651461016c578063d6fbf20214610197578063e6c0e6d5146101c257610086565b806308551a531461008b57806347ccca02146100b65780638622a689146100e157806398d5fdca1461010c575b600080fd5b34801561009757600080fd5b506100a06101ed565b6040516100ad91906108c5565b60405180910390f35b3480156100c257600080fd5b506100cb610211565b6040516100d89190610917565b60405180910390f35b3480156100ed57600080fd5b506100f6610235565b6040516101039190610992565b60405180910390f35b34801561011857600080fd5b50610121610259565b60405161012e9190610992565b60405180910390f35b61013f6102ed565b005b34801561014d57600080fd5b506101566106df565b6040516101639190610992565b60405180910390f35b34801561017857600080fd5b50610181610703565b60405161018e9190610992565b60405180910390f35b3480156101a357600080fd5b506101ac610727565b6040516101b99190610992565b60405180910390f35b3480156101ce57600080fd5b506101d761074b565b6040516101e49190610992565b60405180910390f35b7f000000000000000000000000000000000000000000000000000000000000000081565b7f000000000000000000000000000000000000000000000000000000000000000081565b7f000000000000000000000000000000000000000000000000000000000000000081565b6000807f0000000000000000000000000000000000000000000000000000000000000000426102889190610a4c565b90506000817f00000000000000000000000000000000000000000000000000000000000000006102b891906109f2565b9050807f00000000000000000000000000000000000000000000000000000000000000006102e69190610a4c565b9250505090565b7f0000000000000000000000000000000000000000000000000000000000000000421061034f576040517f08c379a000000000000000000000000000000000000000000000000000000000815260040161034690610952565b60405180910390fd5b6000610359610259565b90508034101561039e576040517f08c379a000000000000000000000000000000000000000000000000000000000815260040161039590610932565b60405180910390fd5b7f000000000000000000000000000000000000000000000000000000000000000073ffffffffffffffffffffffffffffffffffffffff166323b872dd7f0000000000000000000000000000000000000000000000000000000000000000337f00000000000000000000000000000000000000000000000000000000000000006040518463ffffffff1660e01b815260040161043b939291906108e0565b600060405180830381600087803b15801561045557600080fd5b505af1158015610469573d6000803e3d6000fd5b505050506000813461047b9190610a4c565b905060003373ffffffffffffffffffffffffffffffffffffffff16826040516104a3906108b0565b60006040518083038185875af1925050503d80600081146104e0576040519150601f19603f3d011682016040523d82523d6000602084013e6104e5565b606091505b5050905080610529576040517f08c379a000000000000000000000000000000000000000000000000000000000815260040161052090610972565b60405180910390fd5b6000807f000000000000000000000000000000000000000000000000000000000000000073ffffffffffffffffffffffffffffffffffffffff16632a55205a7f0000000000000000000000000000000000000000000000000000000000000000876040518363ffffffff1660e01b81526004016105a79291906109ad565b604080518083038186803b1580156105be57600080fd5b505afa1580156105d2573d6000803e3d6000fd5b505050506040513d601f19601f820116820180604052508101906105f69190610799565b9150915060008273ffffffffffffffffffffffffffffffffffffffff1682604051610620906108b0565b60006040518083038185875af1925050503d806000811461065d576040519150601f19603f3d011682016040523d82523d6000602084013e610662565b606091505b50509050806106a6576040517f08c379a000000000000000000000000000000000000000000000000000000000815260040161069d90610972565b60405180910390fd5b7f000000000000000000000000000000000000000000000000000000000000000073ffffffffffffffffffffffffffffffffffffffff16ff5b7f000000000000000000000000000000000000000000000000000000000000000081565b7f000000000000000000000000000000000000000000000000000000000000000081565b7f000000000000000000000000000000000000000000000000000000000000000081565b7f000000000000000000000000000000000000000000000000000000000000000081565b60008151905061077e81610bc8565b92915050565b60008151905061079381610bdf565b92915050565b600080604083850312156107b0576107af610b45565b5b60006107be8582860161076f565b92505060206107cf85828601610784565b9150509250929050565b6107e281610ace565b82525050565b6107f181610a92565b82525050565b61080081610a80565b82525050565b61080f81610ae0565b82525050565b60006108226013836109e1565b915061082d82610b4a565b602082019050919050565b60006108456000836109d6565b915061085082610b73565b600082019050919050565b6000610868600f836109e1565b915061087382610b76565b602082019050919050565b600061088b6012836109e1565b915061089682610b9f565b602082019050919050565b6108aa81610ac4565b82525050565b60006108bb82610838565b9150819050919050565b60006020820190506108da60008301846107e8565b92915050565b60006060820190506108f560008301866107d9565b61090260208301856107f7565b61090f60408301846108a1565b949350505050565b600060208201905061092c6000830184610806565b92915050565b6000602082019050818103600083015261094b81610815565b9050919050565b6000602082019050818103600083015261096b8161085b565b9050919050565b6000602082019050818103600083015261098b8161087e565b9050919050565b60006020820190506109a760008301846108a1565b92915050565b60006040820190506109c260008301856108a1565b6109cf60208301846108a1565b9392505050565b600081905092915050565b600082825260208201905092915050565b60006109fd82610ac4565b9150610a0883610ac4565b9250817fffffffffffffffffffffffffffffffffffffffffffffffffffffffffffffffff0483118215151615610a4157610a40610b16565b5b828202905092915050565b6000610a5782610ac4565b9150610a6283610ac4565b925082821015610a7557610a74610b16565b5b828203905092915050565b6000610a8b82610aa4565b9050919050565b6000610a9d82610aa4565b9050919050565b600073ffffffffffffffffffffffffffffffffffffffff82169050919050565b6000819050919050565b6000610ad982610af2565b9050919050565b6000610aeb82610af2565b9050919050565b6000610afd82610b04565b9050919050565b6000610b0f82610aa4565b9050919050565b7f4e487b7100000000000000000000000000000000000000000000000000000000600052601160045260246000fd5b600080fd5b7f76616c75652073656e74206973206c6f77657200000000000000000000000000600082015250565b50565b7f61756374696f6e20657870697265640000000000000000000000000000000000600082015250565b7f7472616e73616374696f6e206661696c65640000000000000000000000000000600082015250565b610bd181610a80565b8114610bdc57600080fd5b50565b610be881610ac4565b8114610bf357600080fd5b5056fea264697066735822122016fb175d0571df80e773da8e60b2c93442414a817d5906ab907303358dfec67064736f6c63430008070033a2646970667358221220035d47cf893fe04fcb10afea945ae4080011d8a090719be6c4ed48cc03da35f264736f6c63430008070033",
			"opcodes": "PUSH1 0x80 PUSH1 0x40 MSTORE CALLVALUE DUP1 ISZERO PUSH2 0x10 JUMPI PUSH1 0x0 DUP1 REVERT JUMPDEST POP PUSH2 0x3214 DUP1 PUSH2 0x20 PUSH1 0x0 CODECOPY PUSH1 0x0 RETURN INVALID PUSH1 0x80 PUSH1 0x40 MSTORE CALLVALUE DUP1 ISZERO PUSH3 0x11 JUMPI PUSH1 0x0 DUP1 REVERT JUMPDEST POP PUSH1 0x4 CALLDATASIZE LT PUSH3 0x6A JUMPI PUSH1 0x0 CALLDATALOAD PUSH1 0xE0 SHR DUP1 PUSH4 0x4B2E3CCB EQ PUSH3 0x6F JUMPI DUP1 PUSH4 0x751381E4 EQ PUSH3 0x91 JUMPI DUP1 PUSH4 0x75C8322F EQ PUSH3 0xC7 JUMPI DUP1 PUSH4 0x9254253E EQ PUSH3 0xFD JUMPI DUP1 PUSH4 0xBCDA6B9F EQ PUSH3 0x11D JUMPI DUP1 PUSH4 0xFEDD6987 EQ PUSH3 0x13D JUMPI JUMPDEST PUSH1 0x0 DUP1 REVERT JUMPDEST PUSH3 0x79 PUSH3 0x15F JUMP JUMPDEST PUSH1 0x40 MLOAD PUSH3 0x88 SWAP2 SWAP1 PUSH3 0x58E JUMP JUMPDEST PUSH1 0x40 MLOAD DUP1 SWAP2 SUB SWAP1 RETURN JUMPDEST PUSH3 0xAF PUSH1 0x4 DUP1 CALLDATASIZE SUB DUP2 ADD SWAP1 PUSH3 0xA9 SWAP2 SWAP1 PUSH3 0x46C JUMP JUMPDEST PUSH3 0x1C6 JUMP JUMPDEST PUSH1 0x40 MLOAD PUSH3 0xBE SWAP2 SWAP1 PUSH3 0x58E JUMP JUMPDEST PUSH1 0x40 MLOAD DUP1 SWAP2 SUB SWAP1 RETURN JUMPDEST PUSH3 0xE5 PUSH1 0x4 DUP1 CALLDATASIZE SUB DUP2 ADD SWAP1 PUSH3 0xDF SWAP2 SWAP1 PUSH3 0x46C JUMP JUMPDEST PUSH3 0x1F9 JUMP JUMPDEST PUSH1 0x40 MLOAD PUSH3 0xF4 SWAP2 SWAP1 PUSH3 0x58E JUMP JUMPDEST PUSH1 0x40 MLOAD DUP1 SWAP2 SUB SWAP1 RETURN JUMPDEST PUSH3 0x11B PUSH1 0x4 DUP1 CALLDATASIZE SUB DUP2 ADD SWAP1 PUSH3 0x115 SWAP2 SWAP1 PUSH3 0x49E JUMP JUMPDEST PUSH3 0x22C JUMP JUMPDEST STOP JUMPDEST PUSH3 0x13B PUSH1 0x4 DUP1 CALLDATASIZE SUB DUP2 ADD SWAP1 PUSH3 0x135 SWAP2 SWAP1 PUSH3 0x4FA JUMP JUMPDEST PUSH3 0x2F2 JUMP JUMPDEST STOP JUMPDEST PUSH3 0x147 PUSH3 0x3BC JUMP JUMPDEST PUSH1 0x40 MLOAD PUSH3 0x156 SWAP2 SWAP1 PUSH3 0x58E JUMP JUMPDEST PUSH1 0x40 MLOAD DUP1 SWAP2 SUB SWAP1 RETURN JUMPDEST PUSH1 0x0 PUSH1 0x1 PUSH1 0x0 CALLER PUSH20 0xFFFFFFFFFFFFFFFFFFFFFFFFFFFFFFFFFFFFFFFF AND PUSH20 0xFFFFFFFFFFFFFFFFFFFFFFFFFFFFFFFFFFFFFFFF AND DUP2 MSTORE PUSH1 0x20 ADD SWAP1 DUP2 MSTORE PUSH1 0x20 ADD PUSH1 0x0 KECCAK256 PUSH1 0x0 SWAP1 SLOAD SWAP1 PUSH2 0x100 EXP SWAP1 DIV PUSH20 0xFFFFFFFFFFFFFFFFFFFFFFFFFFFFFFFFFFFFFFFF AND SWAP1 POP SWAP1 JUMP JUMPDEST PUSH1 0x0 PUSH1 0x20 MSTORE DUP1 PUSH1 0x0 MSTORE PUSH1 0x40 PUSH1 0x0 KECCAK256 PUSH1 0x0 SWAP2 POP SLOAD SWAP1 PUSH2 0x100 EXP SWAP1 DIV PUSH20 0xFFFFFFFFFFFFFFFFFFFFFFFFFFFFFFFFFFFFFFFF AND DUP2 JUMP JUMPDEST PUSH1 0x1 PUSH1 0x20 MSTORE DUP1 PUSH1 0x0 MSTORE PUSH1 0x40 PUSH1 0x0 KECCAK256 PUSH1 0x0 SWAP2 POP SLOAD SWAP1 PUSH2 0x100 EXP SWAP1 DIV PUSH20 0xFFFFFFFFFFFFFFFFFFFFFFFFFFFFFFFFFFFFFFFF AND DUP2 JUMP JUMPDEST PUSH1 0x0 DUP4 DUP4 DUP4 CALLER PUSH1 0x40 MLOAD PUSH3 0x240 SWAP1 PUSH3 0x422 JUMP JUMPDEST PUSH3 0x24F SWAP5 SWAP4 SWAP3 SWAP2 SWAP1 PUSH3 0x5AB JUMP JUMPDEST PUSH1 0x40 MLOAD DUP1 SWAP2 SUB SWAP1 PUSH1 0x0 CREATE DUP1 ISZERO DUP1 ISZERO PUSH3 0x26C JUMPI RETURNDATASIZE PUSH1 0x0 DUP1 RETURNDATACOPY RETURNDATASIZE PUSH1 0x0 REVERT JUMPDEST POP SWAP1 POP DUP1 PUSH1 0x0 DUP1 CALLER PUSH20 0xFFFFFFFFFFFFFFFFFFFFFFFFFFFFFFFFFFFFFFFF AND PUSH20 0xFFFFFFFFFFFFFFFFFFFFFFFFFFFFFFFFFFFFFFFF AND DUP2 MSTORE PUSH1 0x20 ADD SWAP1 DUP2 MSTORE PUSH1 0x20 ADD PUSH1 0x0 KECCAK256 PUSH1 0x0 PUSH2 0x100 EXP DUP2 SLOAD DUP2 PUSH20 0xFFFFFFFFFFFFFFFFFFFFFFFFFFFFFFFFFFFFFFFF MUL NOT AND SWAP1 DUP4 PUSH20 0xFFFFFFFFFFFFFFFFFFFFFFFFFFFFFFFFFFFFFFFF AND MUL OR SWAP1 SSTORE POP POP POP POP POP JUMP JUMPDEST PUSH1 0x0 DUP5 DUP5 DUP5 DUP5 CALLER PUSH1 0x40 MLOAD PUSH3 0x307 SWAP1 PUSH3 0x430 JUMP JUMPDEST PUSH3 0x317 SWAP6 SWAP5 SWAP4 SWAP3 SWAP2 SWAP1 PUSH3 0x5F8 JUMP JUMPDEST PUSH1 0x40 MLOAD DUP1 SWAP2 SUB SWAP1 PUSH1 0x0 CREATE DUP1 ISZERO DUP1 ISZERO PUSH3 0x334 JUMPI RETURNDATASIZE PUSH1 0x0 DUP1 RETURNDATACOPY RETURNDATASIZE PUSH1 0x0 REVERT JUMPDEST POP SWAP1 POP DUP1 PUSH1 0x1 PUSH1 0x0 CALLER PUSH20 0xFFFFFFFFFFFFFFFFFFFFFFFFFFFFFFFFFFFFFFFF AND PUSH20 0xFFFFFFFFFFFFFFFFFFFFFFFFFFFFFFFFFFFFFFFF AND DUP2 MSTORE PUSH1 0x20 ADD SWAP1 DUP2 MSTORE PUSH1 0x20 ADD PUSH1 0x0 KECCAK256 PUSH1 0x0 PUSH2 0x100 EXP DUP2 SLOAD DUP2 PUSH20 0xFFFFFFFFFFFFFFFFFFFFFFFFFFFFFFFFFFFFFFFF MUL NOT AND SWAP1 DUP4 PUSH20 0xFFFFFFFFFFFFFFFFFFFFFFFFFFFFFFFFFFFFFFFF AND MUL OR SWAP1 SSTORE POP POP POP POP POP POP JUMP JUMPDEST PUSH1 0x0 DUP1 PUSH1 0x0 CALLER PUSH20 0xFFFFFFFFFFFFFFFFFFFFFFFFFFFFFFFFFFFFFFFF AND PUSH20 0xFFFFFFFFFFFFFFFFFFFFFFFFFFFFFFFFFFFFFFFF AND DUP2 MSTORE PUSH1 0x20 ADD SWAP1 DUP2 MSTORE PUSH1 0x20 ADD PUSH1 0x0 KECCAK256 PUSH1 0x0 SWAP1 SLOAD SWAP1 PUSH2 0x100 EXP SWAP1 DIV PUSH20 0xFFFFFFFFFFFFFFFFFFFFFFFFFFFFFFFFFFFFFFFF AND SWAP1 POP SWAP1 JUMP JUMPDEST PUSH2 0x1A60 DUP1 PUSH3 0x6CD DUP4 CODECOPY ADD SWAP1 JUMP JUMPDEST PUSH2 0x10B2 DUP1 PUSH3 0x212D DUP4 CODECOPY ADD SWAP1 JUMP JUMPDEST PUSH1 0x0 DUP2 CALLDATALOAD SWAP1 POP PUSH3 0x44F DUP2 PUSH3 0x698 JUMP JUMPDEST SWAP3 SWAP2 POP POP JUMP JUMPDEST PUSH1 0x0 DUP2 CALLDATALOAD SWAP1 POP PUSH3 0x466 DUP2 PUSH3 0x6B2 JUMP JUMPDEST SWAP3 SWAP2 POP POP JUMP JUMPDEST PUSH1 0x0 PUSH1 0x20 DUP3 DUP5 SUB SLT ISZERO PUSH3 0x485 JUMPI PUSH3 0x484 PUSH3 0x693 JUMP JUMPDEST JUMPDEST PUSH1 0x0 PUSH3 0x495 DUP5 DUP3 DUP6 ADD PUSH3 0x43E JUMP JUMPDEST SWAP2 POP POP SWAP3 SWAP2 POP POP JUMP JUMPDEST PUSH1 0x0 DUP1 PUSH1 0x0 PUSH1 0x60 DUP5 DUP7 SUB SLT ISZERO PUSH3 0x4BA JUMPI PUSH3 0x4B9 PUSH3 0x693 JUMP JUMPDEST JUMPDEST PUSH1 0x0 PUSH3 0x4CA DUP7 DUP3 DUP8 ADD PUSH3 0x43E JUMP JUMPDEST SWAP4 POP POP PUSH1 0x20 PUSH3 0x4DD DUP7 DUP3 DUP8 ADD PUSH3 0x455 JUMP JUMPDEST SWAP3 POP POP PUSH1 0x40 PUSH3 0x4F0 DUP7 DUP3 DUP8 ADD PUSH3 0x455 JUMP JUMPDEST SWAP2 POP POP SWAP3 POP SWAP3 POP SWAP3 JUMP JUMPDEST PUSH1 0x0 DUP1 PUSH1 0x0 DUP1 PUSH1 0x80 DUP6 DUP8 SUB SLT ISZERO PUSH3 0x517 JUMPI PUSH3 0x516 PUSH3 0x693 JUMP JUMPDEST JUMPDEST PUSH1 0x0 PUSH3 0x527 DUP8 DUP3 DUP9 ADD PUSH3 0x43E JUMP JUMPDEST SWAP5 POP POP PUSH1 0x20 PUSH3 0x53A DUP8 DUP3 DUP9 ADD PUSH3 0x455 JUMP JUMPDEST SWAP4 POP POP PUSH1 0x40 PUSH3 0x54D DUP8 DUP3 DUP9 ADD PUSH3 0x455 JUMP JUMPDEST SWAP3 POP POP PUSH1 0x60 PUSH3 0x560 DUP8 DUP3 DUP9 ADD PUSH3 0x455 JUMP JUMPDEST SWAP2 POP POP SWAP3 SWAP6 SWAP2 SWAP5 POP SWAP3 POP JUMP JUMPDEST PUSH3 0x577 DUP2 PUSH3 0x655 JUMP JUMPDEST DUP3 MSTORE POP POP JUMP JUMPDEST PUSH3 0x588 DUP2 PUSH3 0x689 JUMP JUMPDEST DUP3 MSTORE POP POP JUMP JUMPDEST PUSH1 0x0 PUSH1 0x20 DUP3 ADD SWAP1 POP PUSH3 0x5A5 PUSH1 0x0 DUP4 ADD DUP5 PUSH3 0x56C JUMP JUMPDEST SWAP3 SWAP2 POP POP JUMP JUMPDEST PUSH1 0x0 PUSH1 0x80 DUP3 ADD SWAP1 POP PUSH3 0x5C2 PUSH1 0x0 DUP4 ADD DUP8 PUSH3 0x56C JUMP JUMPDEST PUSH3 0x5D1 PUSH1 0x20 DUP4 ADD DUP7 PUSH3 0x57D JUMP JUMPDEST PUSH3 0x5E0 PUSH1 0x40 DUP4 ADD DUP6 PUSH3 0x57D JUMP JUMPDEST PUSH3 0x5EF PUSH1 0x60 DUP4 ADD DUP5 PUSH3 0x56C JUMP JUMPDEST SWAP6 SWAP5 POP POP POP POP POP JUMP JUMPDEST PUSH1 0x0 PUSH1 0xA0 DUP3 ADD SWAP1 POP PUSH3 0x60F PUSH1 0x0 DUP4 ADD DUP9 PUSH3 0x56C JUMP JUMPDEST PUSH3 0x61E PUSH1 0x20 DUP4 ADD DUP8 PUSH3 0x57D JUMP JUMPDEST PUSH3 0x62D PUSH1 0x40 DUP4 ADD DUP7 PUSH3 0x57D JUMP JUMPDEST PUSH3 0x63C PUSH1 0x60 DUP4 ADD DUP6 PUSH3 0x57D JUMP JUMPDEST PUSH3 0x64B PUSH1 0x80 DUP4 ADD DUP5 PUSH3 0x56C JUMP JUMPDEST SWAP7 SWAP6 POP POP POP POP POP POP JUMP JUMPDEST PUSH1 0x0 PUSH3 0x662 DUP3 PUSH3 0x669 JUMP JUMPDEST SWAP1 POP SWAP2 SWAP1 POP JUMP JUMPDEST PUSH1 0x0 PUSH20 0xFFFFFFFFFFFFFFFFFFFFFFFFFFFFFFFFFFFFFFFF DUP3 AND SWAP1 POP SWAP2 SWAP1 POP JUMP JUMPDEST PUSH1 0x0 DUP2 SWAP1 POP SWAP2 SWAP1 POP JUMP JUMPDEST PUSH1 0x0 DUP1 REVERT JUMPDEST PUSH3 0x6A3 DUP2 PUSH3 0x655 JUMP JUMPDEST DUP2 EQ PUSH3 0x6AF JUMPI PUSH1 0x0 DUP1 REVERT JUMPDEST POP JUMP JUMPDEST PUSH3 0x6BD DUP2 PUSH3 0x689 JUMP JUMPDEST DUP2 EQ PUSH3 0x6C9 JUMPI PUSH1 0x0 DUP1 REVERT JUMPDEST POP JUMP INVALID PUSH1 0xE0 PUSH1 0x40 MSTORE CALLVALUE DUP1 ISZERO PUSH3 0x11 JUMPI PUSH1 0x0 DUP1 REVERT JUMPDEST POP PUSH1 0x40 MLOAD PUSH3 0x1A60 CODESIZE SUB DUP1 PUSH3 0x1A60 DUP4 CODECOPY DUP2 DUP2 ADD PUSH1 0x40 MSTORE DUP2 ADD SWAP1 PUSH3 0x37 SWAP2 SWAP1 PUSH3 0xEC JUMP JUMPDEST DUP4 PUSH20 0xFFFFFFFFFFFFFFFFFFFFFFFFFFFFFFFFFFFFFFFF AND PUSH1 0x80 DUP2 PUSH20 0xFFFFFFFFFFFFFFFFFFFFFFFFFFFFFFFFFFFFFFFF AND PUSH1 0x60 SHL DUP2 MSTORE POP POP DUP3 PUSH1 0xA0 DUP2 DUP2 MSTORE POP POP DUP2 PUSH1 0x1 DUP2 SWAP1 SSTORE POP DUP1 PUSH20 0xFFFFFFFFFFFFFFFFFFFFFFFFFFFFFFFFFFFFFFFF AND PUSH1 0xC0 DUP2 PUSH20 0xFFFFFFFFFFFFFFFFFFFFFFFFFFFFFFFFFFFFFFFF AND PUSH1 0x60 SHL DUP2 MSTORE POP POP POP POP POP POP PUSH3 0x1D5 JUMP JUMPDEST PUSH1 0x0 DUP2 MLOAD SWAP1 POP PUSH3 0xCF DUP2 PUSH3 0x1A1 JUMP JUMPDEST SWAP3 SWAP2 POP POP JUMP JUMPDEST PUSH1 0x0 DUP2 MLOAD SWAP1 POP PUSH3 0xE6 DUP2 PUSH3 0x1BB JUMP JUMPDEST SWAP3 SWAP2 POP POP JUMP JUMPDEST PUSH1 0x0 DUP1 PUSH1 0x0 DUP1 PUSH1 0x80 DUP6 DUP8 SUB SLT ISZERO PUSH3 0x109 JUMPI PUSH3 0x108 PUSH3 0x19C JUMP JUMPDEST JUMPDEST PUSH1 0x0 PUSH3 0x119 DUP8 DUP3 DUP9 ADD PUSH3 0xBE JUMP JUMPDEST SWAP5 POP POP PUSH1 0x20 PUSH3 0x12C DUP8 DUP3 DUP9 ADD PUSH3 0xD5 JUMP JUMPDEST SWAP4 POP POP PUSH1 0x40 PUSH3 0x13F DUP8 DUP3 DUP9 ADD PUSH3 0xD5 JUMP JUMPDEST SWAP3 POP POP PUSH1 0x60 PUSH3 0x152 DUP8 DUP3 DUP9 ADD PUSH3 0xBE JUMP JUMPDEST SWAP2 POP POP SWAP3 SWAP6 SWAP2 SWAP5 POP SWAP3 POP JUMP JUMPDEST PUSH1 0x0 PUSH3 0x16B DUP3 PUSH3 0x172 JUMP JUMPDEST SWAP1 POP SWAP2 SWAP1 POP JUMP JUMPDEST PUSH1 0x0 PUSH20 0xFFFFFFFFFFFFFFFFFFFFFFFFFFFFFFFFFFFFFFFF DUP3 AND SWAP1 POP SWAP2 SWAP1 POP JUMP JUMPDEST PUSH1 0x0 DUP2 SWAP1 POP SWAP2 SWAP1 POP JUMP JUMPDEST PUSH1 0x0 DUP1 REVERT JUMPDEST PUSH3 0x1AC DUP2 PUSH3 0x15E JUMP JUMPDEST DUP2 EQ PUSH3 0x1B8 JUMPI PUSH1 0x0 DUP1 REVERT JUMPDEST POP JUMP JUMPDEST PUSH3 0x1C6 DUP2 PUSH3 0x192 JUMP JUMPDEST DUP2 EQ PUSH3 0x1D2 JUMPI PUSH1 0x0 DUP1 REVERT JUMPDEST POP JUMP JUMPDEST PUSH1 0x80 MLOAD PUSH1 0x60 SHR PUSH1 0xA0 MLOAD PUSH1 0xC0 MLOAD PUSH1 0x60 SHR PUSH2 0x1801 PUSH3 0x25F PUSH1 0x0 CODECOPY PUSH1 0x0 DUP2 DUP2 PUSH2 0x255 ADD MSTORE DUP2 DUP2 PUSH2 0x76F ADD MSTORE DUP2 DUP2 PUSH2 0x8D2 ADD MSTORE DUP2 DUP2 PUSH2 0xB64 ADD MSTORE PUSH2 0xE5F ADD MSTORE PUSH1 0x0 DUP2 DUP2 PUSH2 0x8F4 ADD MSTORE DUP2 DUP2 PUSH2 0x993 ADD MSTORE DUP2 DUP2 PUSH2 0xB85 ADD MSTORE DUP2 DUP2 PUSH2 0xC3A ADD MSTORE PUSH2 0xD40 ADD MSTORE PUSH1 0x0 DUP2 DUP2 PUSH2 0x711 ADD MSTORE DUP2 DUP2 PUSH2 0x896 ADD MSTORE DUP2 DUP2 PUSH2 0xB27 ADD MSTORE DUP2 DUP2 PUSH2 0xBFE ADD MSTORE PUSH2 0xCE0 ADD MSTORE PUSH2 0x1801 PUSH1 0x0 RETURN INVALID PUSH1 0x80 PUSH1 0x40 MSTORE PUSH1 0x4 CALLDATASIZE LT PUSH2 0xA7 JUMPI PUSH1 0x0 CALLDATALOAD PUSH1 0xE0 SHR DUP1 PUSH4 0x7CC3AE8C GT PUSH2 0x64 JUMPI DUP1 PUSH4 0x7CC3AE8C EQ PUSH2 0x179 JUMPI DUP1 PUSH4 0x91F90157 EQ PUSH2 0x1A4 JUMPI DUP1 PUSH4 0xBE9A6555 EQ PUSH2 0x1CF JUMPI DUP1 PUSH4 0xC6BC5182 EQ PUSH2 0x1E6 JUMPI DUP1 PUSH4 0xD57BDE79 EQ PUSH2 0x211 JUMPI DUP1 PUSH4 0xEFBE1C1C EQ PUSH2 0x23C JUMPI PUSH2 0xA7 JUMP JUMPDEST DUP1 PUSH4 0x8551A53 EQ PUSH2 0xAC JUMPI DUP1 PUSH4 0x12FA6FEB EQ PUSH2 0xD7 JUMPI DUP1 PUSH4 0x1998AEEF EQ PUSH2 0x102 JUMPI DUP1 PUSH4 0x1F2698AB EQ PUSH2 0x10C JUMPI DUP1 PUSH4 0x3CCFD60B EQ PUSH2 0x137 JUMPI DUP1 PUSH4 0x47CCCA02 EQ PUSH2 0x14E JUMPI JUMPDEST PUSH1 0x0 DUP1 REVERT JUMPDEST CALLVALUE DUP1 ISZERO PUSH2 0xB8 JUMPI PUSH1 0x0 DUP1 REVERT JUMPDEST POP PUSH2 0xC1 PUSH2 0x253 JUMP JUMPDEST PUSH1 0x40 MLOAD PUSH2 0xCE SWAP2 SWAP1 PUSH2 0x1202 JUMP JUMPDEST PUSH1 0x40 MLOAD DUP1 SWAP2 SUB SWAP1 RETURN JUMPDEST CALLVALUE DUP1 ISZERO PUSH2 0xE3 JUMPI PUSH1 0x0 DUP1 REVERT JUMPDEST POP PUSH2 0xEC PUSH2 0x277 JUMP JUMPDEST PUSH1 0x40 MLOAD PUSH2 0xF9 SWAP2 SWAP1 PUSH2 0x12C2 JUMP JUMPDEST PUSH1 0x40 MLOAD DUP1 SWAP2 SUB SWAP1 RETURN JUMPDEST PUSH2 0x10A PUSH2 0x28A JUMP JUMPDEST STOP JUMPDEST CALLVALUE DUP1 ISZERO PUSH2 0x118 JUMPI PUSH1 0x0 DUP1 REVERT JUMPDEST POP PUSH2 0x121 PUSH2 0x4A1 JUMP JUMPDEST PUSH1 0x40 MLOAD PUSH2 0x12E SWAP2 SWAP1 PUSH2 0x12C2 JUMP JUMPDEST PUSH1 0x40 MLOAD DUP1 SWAP2 SUB SWAP1 RETURN JUMPDEST CALLVALUE DUP1 ISZERO PUSH2 0x143 JUMPI PUSH1 0x0 DUP1 REVERT JUMPDEST POP PUSH2 0x14C PUSH2 0x4B4 JUMP JUMPDEST STOP JUMPDEST CALLVALUE DUP1 ISZERO PUSH2 0x15A JUMPI PUSH1 0x0 DUP1 REVERT JUMPDEST POP PUSH2 0x163 PUSH2 0x70F JUMP JUMPDEST PUSH1 0x40 MLOAD PUSH2 0x170 SWAP2 SWAP1 PUSH2 0x12DD JUMP JUMPDEST PUSH1 0x40 MLOAD DUP1 SWAP2 SUB SWAP1 RETURN JUMPDEST CALLVALUE DUP1 ISZERO PUSH2 0x185 JUMPI PUSH1 0x0 DUP1 REVERT JUMPDEST POP PUSH2 0x18E PUSH2 0x733 JUMP JUMPDEST PUSH1 0x40 MLOAD PUSH2 0x19B SWAP2 SWAP1 PUSH2 0x145C JUMP JUMPDEST PUSH1 0x40 MLOAD DUP1 SWAP2 SUB SWAP1 RETURN JUMPDEST CALLVALUE DUP1 ISZERO PUSH2 0x1B0 JUMPI PUSH1 0x0 DUP1 REVERT JUMPDEST POP PUSH2 0x1B9 PUSH2 0x747 JUMP JUMPDEST PUSH1 0x40 MLOAD PUSH2 0x1C6 SWAP2 SWAP1 PUSH2 0x11E7 JUMP JUMPDEST PUSH1 0x40 MLOAD DUP1 SWAP2 SUB SWAP1 RETURN JUMPDEST CALLVALUE DUP1 ISZERO PUSH2 0x1DB JUMPI PUSH1 0x0 DUP1 REVERT JUMPDEST POP PUSH2 0x1E4 PUSH2 0x76D JUMP JUMPDEST STOP JUMPDEST CALLVALUE DUP1 ISZERO PUSH2 0x1F2 JUMPI PUSH1 0x0 DUP1 REVERT JUMPDEST POP PUSH2 0x1FB PUSH2 0x991 JUMP JUMPDEST PUSH1 0x40 MLOAD PUSH2 0x208 SWAP2 SWAP1 PUSH2 0x1418 JUMP JUMPDEST PUSH1 0x40 MLOAD DUP1 SWAP2 SUB SWAP1 RETURN JUMPDEST CALLVALUE DUP1 ISZERO PUSH2 0x21D JUMPI PUSH1 0x0 DUP1 REVERT JUMPDEST POP PUSH2 0x226 PUSH2 0x9B5 JUMP JUMPDEST PUSH1 0x40 MLOAD PUSH2 0x233 SWAP2 SWAP1 PUSH2 0x1418 JUMP JUMPDEST PUSH1 0x40 MLOAD DUP1 SWAP2 SUB SWAP1 RETURN JUMPDEST CALLVALUE DUP1 ISZERO PUSH2 0x248 JUMPI PUSH1 0x0 DUP1 REVERT JUMPDEST POP PUSH2 0x251 PUSH2 0x9BB JUMP JUMPDEST STOP JUMPDEST PUSH32 0x0 DUP2 JUMP JUMPDEST PUSH1 0x0 PUSH1 0x5 SWAP1 SLOAD SWAP1 PUSH2 0x100 EXP SWAP1 DIV PUSH1 0xFF AND DUP2 JUMP JUMPDEST PUSH1 0x0 PUSH1 0x4 SWAP1 SLOAD SWAP1 PUSH2 0x100 EXP SWAP1 DIV PUSH1 0xFF AND PUSH2 0x2D9 JUMPI PUSH1 0x40 MLOAD PUSH32 0x8C379A000000000000000000000000000000000000000000000000000000000 DUP2 MSTORE PUSH1 0x4 ADD PUSH2 0x2D0 SWAP1 PUSH2 0x1398 JUMP JUMPDEST PUSH1 0x40 MLOAD DUP1 SWAP2 SUB SWAP1 REVERT JUMPDEST PUSH1 0x0 DUP1 SLOAD SWAP1 PUSH2 0x100 EXP SWAP1 DIV PUSH4 0xFFFFFFFF AND PUSH4 0xFFFFFFFF AND TIMESTAMP LT PUSH2 0x331 JUMPI PUSH1 0x40 MLOAD PUSH32 0x8C379A000000000000000000000000000000000000000000000000000000000 DUP2 MSTORE PUSH1 0x4 ADD PUSH2 0x328 SWAP1 PUSH2 0x13B8 JUMP JUMPDEST PUSH1 0x40 MLOAD DUP1 SWAP2 SUB SWAP1 REVERT JUMPDEST PUSH1 0x0 CALLVALUE PUSH1 0x2 PUSH1 0x0 CALLER PUSH20 0xFFFFFFFFFFFFFFFFFFFFFFFFFFFFFFFFFFFFFFFF AND PUSH20 0xFFFFFFFFFFFFFFFFFFFFFFFFFFFFFFFFFFFFFFFF AND DUP2 MSTORE PUSH1 0x20 ADD SWAP1 DUP2 MSTORE PUSH1 0x20 ADD PUSH1 0x0 KECCAK256 SLOAD PUSH2 0x37E SWAP2 SWAP1 PUSH2 0x1493 JUMP JUMPDEST SWAP1 POP PUSH1 0x1 SLOAD DUP2 GT PUSH2 0x3C4 JUMPI PUSH1 0x40 MLOAD PUSH32 0x8C379A000000000000000000000000000000000000000000000000000000000 DUP2 MSTORE PUSH1 0x4 ADD PUSH2 0x3BB SWAP1 PUSH2 0x1318 JUMP JUMPDEST PUSH1 0x40 MLOAD DUP1 SWAP2 SUB SWAP1 REVERT JUMPDEST DUP1 PUSH1 0x1 DUP2 SWAP1 SSTORE POP DUP1 PUSH1 0x2 PUSH1 0x0 CALLER PUSH20 0xFFFFFFFFFFFFFFFFFFFFFFFFFFFFFFFFFFFFFFFF AND PUSH20 0xFFFFFFFFFFFFFFFFFFFFFFFFFFFFFFFFFFFFFFFF AND DUP2 MSTORE PUSH1 0x20 ADD SWAP1 DUP2 MSTORE PUSH1 0x20 ADD PUSH1 0x0 KECCAK256 DUP2 SWAP1 SSTORE POP CALLER PUSH1 0x0 PUSH1 0x6 PUSH2 0x100 EXP DUP2 SLOAD DUP2 PUSH20 0xFFFFFFFFFFFFFFFFFFFFFFFFFFFFFFFFFFFFFFFF MUL NOT AND SWAP1 DUP4 PUSH20 0xFFFFFFFFFFFFFFFFFFFFFFFFFFFFFFFFFFFFFFFF AND MUL OR SWAP1 SSTORE POP CALLER PUSH20 0xFFFFFFFFFFFFFFFFFFFFFFFFFFFFFFFFFFFFFFFF AND PUSH32 0xE684A55F31B79ECA403DF938249029212A5925EC6BE8012E099B45BC1019E5D2 CALLVALUE PUSH1 0x40 MLOAD PUSH2 0x496 SWAP2 SWAP1 PUSH2 0x1418 JUMP JUMPDEST PUSH1 0x40 MLOAD DUP1 SWAP2 SUB SWAP1 LOG2 POP JUMP JUMPDEST PUSH1 0x0 PUSH1 0x4 SWAP1 SLOAD SWAP1 PUSH2 0x100 EXP SWAP1 DIV PUSH1 0xFF AND DUP2 JUMP JUMPDEST PUSH1 0x0 PUSH1 0x6 SWAP1 SLOAD SWAP1 PUSH2 0x100 EXP SWAP1 DIV PUSH20 0xFFFFFFFFFFFFFFFFFFFFFFFFFFFFFFFFFFFFFFFF AND PUSH20 0xFFFFFFFFFFFFFFFFFFFFFFFFFFFFFFFFFFFFFFFF AND CALLER PUSH20 0xFFFFFFFFFFFFFFFFFFFFFFFFFFFFFFFFFFFFFFFF AND EQ ISZERO PUSH2 0x545 JUMPI PUSH1 0x40 MLOAD PUSH32 0x8C379A000000000000000000000000000000000000000000000000000000000 DUP2 MSTORE PUSH1 0x4 ADD PUSH2 0x53C SWAP1 PUSH2 0x12F8 JUMP JUMPDEST PUSH1 0x40 MLOAD DUP1 SWAP2 SUB SWAP1 REVERT JUMPDEST PUSH1 0x0 PUSH1 0x2 PUSH1 0x0 CALLER PUSH20 0xFFFFFFFFFFFFFFFFFFFFFFFFFFFFFFFFFFFFFFFF AND PUSH20 0xFFFFFFFFFFFFFFFFFFFFFFFFFFFFFFFFFFFFFFFF AND DUP2 MSTORE PUSH1 0x20 ADD SWAP1 DUP2 MSTORE PUSH1 0x20 ADD PUSH1 0x0 KECCAK256 SLOAD SWAP1 POP PUSH1 0x0 DUP2 GT PUSH2 0x5CC JUMPI PUSH1 0x40 MLOAD PUSH32 0x8C379A000000000000000000000000000000000000000000000000000000000 DUP2 MSTORE PUSH1 0x4 ADD PUSH2 0x5C3 SWAP1 PUSH2 0x1378 JUMP JUMPDEST PUSH1 0x40 MLOAD DUP1 SWAP2 SUB SWAP1 REVERT JUMPDEST PUSH1 0x0 PUSH1 0x2 PUSH1 0x0 CALLER PUSH20 0xFFFFFFFFFFFFFFFFFFFFFFFFFFFFFFFFFFFFFFFF AND PUSH20 0xFFFFFFFFFFFFFFFFFFFFFFFFFFFFFFFFFFFFFFFF AND DUP2 MSTORE PUSH1 0x20 ADD SWAP1 DUP2 MSTORE PUSH1 0x20 ADD PUSH1 0x0 KECCAK256 DUP2 SWAP1 SSTORE POP PUSH1 0x0 CALLER PUSH20 0xFFFFFFFFFFFFFFFFFFFFFFFFFFFFFFFFFFFFFFFF AND DUP3 PUSH1 0x40 MLOAD PUSH2 0x637 SWAP1 PUSH2 0x11D2 JUMP JUMPDEST PUSH1 0x0 PUSH1 0x40 MLOAD DUP1 DUP4 SUB DUP2 DUP6 DUP8 GAS CALL SWAP3 POP POP POP RETURNDATASIZE DUP1 PUSH1 0x0 DUP2 EQ PUSH2 0x674 JUMPI PUSH1 0x40 MLOAD SWAP2 POP PUSH1 0x1F NOT PUSH1 0x3F RETURNDATASIZE ADD AND DUP3 ADD PUSH1 0x40 MSTORE RETURNDATASIZE DUP3 MSTORE RETURNDATASIZE PUSH1 0x0 PUSH1 0x20 DUP5 ADD RETURNDATACOPY PUSH2 0x679 JUMP JUMPDEST PUSH1 0x60 SWAP2 POP JUMPDEST POP POP SWAP1 POP DUP1 PUSH2 0x6BD JUMPI PUSH1 0x40 MLOAD PUSH32 0x8C379A000000000000000000000000000000000000000000000000000000000 DUP2 MSTORE PUSH1 0x4 ADD PUSH2 0x6B4 SWAP1 PUSH2 0x13D8 JUMP JUMPDEST PUSH1 0x40 MLOAD DUP1 SWAP2 SUB SWAP1 REVERT JUMPDEST CALLER PUSH20 0xFFFFFFFFFFFFFFFFFFFFFFFFFFFFFFFFFFFFFFFF AND PUSH32 0x884EDAD9CE6FA2440D8A54CC123490EB96D2768479D49FF9C7366125A9424364 DUP4 PUSH1 0x40 MLOAD PUSH2 0x703 SWAP2 SWAP1 PUSH2 0x1418 JUMP JUMPDEST PUSH1 0x40 MLOAD DUP1 SWAP2 SUB SWAP1 LOG2 POP POP JUMP JUMPDEST PUSH32 0x0 DUP2 JUMP JUMPDEST PUSH1 0x0 DUP1 SLOAD SWAP1 PUSH2 0x100 EXP SWAP1 DIV PUSH4 0xFFFFFFFF AND DUP2 JUMP JUMPDEST PUSH1 0x0 PUSH1 0x6 SWAP1 SLOAD SWAP1 PUSH2 0x100 EXP SWAP1 DIV PUSH20 0xFFFFFFFFFFFFFFFFFFFFFFFFFFFFFFFFFFFFFFFF AND DUP2 JUMP JUMPDEST PUSH32 0x0 PUSH20 0xFFFFFFFFFFFFFFFFFFFFFFFFFFFFFFFFFFFFFFFF AND CALLER PUSH20 0xFFFFFFFFFFFFFFFFFFFFFFFFFFFFFFFFFFFFFFFF AND EQ PUSH2 0x7FB JUMPI PUSH1 0x40 MLOAD PUSH32 0x8C379A000000000000000000000000000000000000000000000000000000000 DUP2 MSTORE PUSH1 0x4 ADD PUSH2 0x7F2 SWAP1 PUSH2 0x1338 JUMP JUMPDEST PUSH1 0x40 MLOAD DUP1 SWAP2 SUB SWAP1 REVERT JUMPDEST PUSH1 0x0 PUSH1 0x4 SWAP1 SLOAD SWAP1 PUSH2 0x100 EXP SWAP1 DIV PUSH1 0xFF AND ISZERO PUSH2 0x84B JUMPI PUSH1 0x40 MLOAD PUSH32 0x8C379A000000000000000000000000000000000000000000000000000000000 DUP2 MSTORE PUSH1 0x4 ADD PUSH2 0x842 SWAP1 PUSH2 0x1358 JUMP JUMPDEST PUSH1 0x40 MLOAD DUP1 SWAP2 SUB SWAP1 REVERT JUMPDEST PUSH1 0x1 PUSH1 0x0 PUSH1 0x4 PUSH2 0x100 EXP DUP2 SLOAD DUP2 PUSH1 0xFF MUL NOT AND SWAP1 DUP4 ISZERO ISZERO MUL OR SWAP1 SSTORE POP PUSH3 0x3F480 TIMESTAMP PUSH2 0x875 SWAP2 SWAP1 PUSH2 0x1493 JUMP JUMPDEST PUSH1 0x0 DUP1 PUSH2 0x100 EXP DUP2 SLOAD DUP2 PUSH4 0xFFFFFFFF MUL NOT AND SWAP1 DUP4 PUSH4 0xFFFFFFFF AND MUL OR SWAP1 SSTORE POP PUSH32 0x0 PUSH20 0xFFFFFFFFFFFFFFFFFFFFFFFFFFFFFFFFFFFFFFFF AND PUSH4 0x23B872DD PUSH32 0x0 ADDRESS PUSH32 0x0 PUSH1 0x40 MLOAD DUP5 PUSH4 0xFFFFFFFF AND PUSH1 0xE0 SHL DUP2 MSTORE PUSH1 0x4 ADD PUSH2 0x931 SWAP4 SWAP3 SWAP2 SWAP1 PUSH2 0x121D JUMP JUMPDEST PUSH1 0x0 PUSH1 0x40 MLOAD DUP1 DUP4 SUB DUP2 PUSH1 0x0 DUP8 DUP1 EXTCODESIZE ISZERO DUP1 ISZERO PUSH2 0x94B JUMPI PUSH1 0x0 DUP1 REVERT JUMPDEST POP GAS CALL ISZERO DUP1 ISZERO PUSH2 0x95F JUMPI RETURNDATASIZE PUSH1 0x0 DUP1 RETURNDATACOPY RETURNDATASIZE PUSH1 0x0 REVERT JUMPDEST POP POP POP POP PUSH32 0x1B55BA3AA851A46BE3B365AEE5B5C140EDD620D578922F3E8466D2CBD96F954B PUSH1 0x40 MLOAD PUSH1 0x40 MLOAD DUP1 SWAP2 SUB SWAP1 LOG1 JUMP JUMPDEST PUSH32 0x0 DUP2 JUMP JUMPDEST PUSH1 0x1 SLOAD DUP2 JUMP JUMPDEST PUSH1 0x0 PUSH1 0x4 SWAP1 SLOAD SWAP1 PUSH2 0x100 EXP SWAP1 DIV PUSH1 0xFF AND PUSH2 0xA0A JUMPI PUSH1 0x40 MLOAD PUSH32 0x8C379A000000000000000000000000000000000000000000000000000000000 DUP2 MSTORE PUSH1 0x4 ADD PUSH2 0xA01 SWAP1 PUSH2 0x1398 JUMP JUMPDEST PUSH1 0x40 MLOAD DUP1 SWAP2 SUB SWAP1 REVERT JUMPDEST PUSH1 0x0 PUSH1 0x5 SWAP1 SLOAD SWAP1 PUSH2 0x100 EXP SWAP1 DIV PUSH1 0xFF AND ISZERO PUSH2 0xA5A JUMPI PUSH1 0x40 MLOAD PUSH32 0x8C379A000000000000000000000000000000000000000000000000000000000 DUP2 MSTORE PUSH1 0x4 ADD PUSH2 0xA51 SWAP1 PUSH2 0x13B8 JUMP JUMPDEST PUSH1 0x40 MLOAD DUP1 SWAP2 SUB SWAP1 REVERT JUMPDEST PUSH1 0x0 DUP1 SLOAD SWAP1 PUSH2 0x100 EXP SWAP1 DIV PUSH4 0xFFFFFFFF AND PUSH4 0xFFFFFFFF AND TIMESTAMP LT ISZERO PUSH2 0xAB3 JUMPI PUSH1 0x40 MLOAD PUSH32 0x8C379A000000000000000000000000000000000000000000000000000000000 DUP2 MSTORE PUSH1 0x4 ADD PUSH2 0xAAA SWAP1 PUSH2 0x13F8 JUMP JUMPDEST PUSH1 0x40 MLOAD DUP1 SWAP2 SUB SWAP1 REVERT JUMPDEST PUSH1 0x1 PUSH1 0x0 PUSH1 0x5 PUSH2 0x100 EXP DUP2 SLOAD DUP2 PUSH1 0xFF MUL NOT AND SWAP1 DUP4 ISZERO ISZERO MUL OR SWAP1 SSTORE POP PUSH1 0x0 PUSH20 0xFFFFFFFFFFFFFFFFFFFFFFFFFFFFFFFFFFFFFFFF AND PUSH1 0x0 PUSH1 0x6 SWAP1 SLOAD SWAP1 PUSH2 0x100 EXP SWAP1 DIV PUSH20 0xFFFFFFFFFFFFFFFFFFFFFFFFFFFFFFFFFFFFFFFF AND PUSH20 0xFFFFFFFFFFFFFFFFFFFFFFFFFFFFFFFFFFFFFFFF AND EQ ISZERO PUSH2 0xBF9 JUMPI PUSH32 0x0 PUSH20 0xFFFFFFFFFFFFFFFFFFFFFFFFFFFFFFFFFFFFFFFF AND PUSH4 0x23B872DD ADDRESS PUSH32 0x0 PUSH32 0x0 PUSH1 0x40 MLOAD DUP5 PUSH4 0xFFFFFFFF AND PUSH1 0xE0 SHL DUP2 MSTORE PUSH1 0x4 ADD PUSH2 0xBC2 SWAP4 SWAP3 SWAP2 SWAP1 PUSH2 0x1254 JUMP JUMPDEST PUSH1 0x0 PUSH1 0x40 MLOAD DUP1 DUP4 SUB DUP2 PUSH1 0x0 DUP8 DUP1 EXTCODESIZE ISZERO DUP1 ISZERO PUSH2 0xBDC JUMPI PUSH1 0x0 DUP1 REVERT JUMPDEST POP GAS CALL ISZERO DUP1 ISZERO PUSH2 0xBF0 JUMPI RETURNDATASIZE PUSH1 0x0 DUP1 RETURNDATACOPY RETURNDATASIZE PUSH1 0x0 REVERT JUMPDEST POP POP POP POP PUSH2 0xF2D JUMP JUMPDEST PUSH1 0x0 DUP1 PUSH32 0x0 PUSH20 0xFFFFFFFFFFFFFFFFFFFFFFFFFFFFFFFFFFFFFFFF AND PUSH4 0x2A55205A PUSH32 0x0 PUSH1 0x1 SLOAD PUSH1 0x40 MLOAD DUP4 PUSH4 0xFFFFFFFF AND PUSH1 0xE0 SHL DUP2 MSTORE PUSH1 0x4 ADD PUSH2 0xC79 SWAP3 SWAP2 SWAP1 PUSH2 0x1433 JUMP JUMPDEST PUSH1 0x40 DUP1 MLOAD DUP1 DUP4 SUB DUP2 DUP7 DUP1 EXTCODESIZE ISZERO DUP1 ISZERO PUSH2 0xC90 JUMPI PUSH1 0x0 DUP1 REVERT JUMPDEST POP GAS STATICCALL ISZERO DUP1 ISZERO PUSH2 0xCA4 JUMPI RETURNDATASIZE PUSH1 0x0 DUP1 RETURNDATACOPY RETURNDATASIZE PUSH1 0x0 REVERT JUMPDEST POP POP POP POP PUSH1 0x40 MLOAD RETURNDATASIZE PUSH1 0x1F NOT PUSH1 0x1F DUP3 ADD AND DUP3 ADD DUP1 PUSH1 0x40 MSTORE POP DUP2 ADD SWAP1 PUSH2 0xCC8 SWAP2 SWAP1 PUSH2 0xFCB JUMP JUMPDEST SWAP2 POP SWAP2 POP PUSH1 0x0 DUP2 PUSH1 0x1 SLOAD PUSH2 0xCDC SWAP2 SWAP1 PUSH2 0x14E9 JUMP JUMPDEST SWAP1 POP PUSH32 0x0 PUSH20 0xFFFFFFFFFFFFFFFFFFFFFFFFFFFFFFFFFFFFFFFF AND PUSH4 0x23B872DD ADDRESS PUSH1 0x0 PUSH1 0x6 SWAP1 SLOAD SWAP1 PUSH2 0x100 EXP SWAP1 DIV PUSH20 0xFFFFFFFFFFFFFFFFFFFFFFFFFFFFFFFFFFFFFFFF AND PUSH32 0x0 PUSH1 0x40 MLOAD DUP5 PUSH4 0xFFFFFFFF AND PUSH1 0xE0 SHL DUP2 MSTORE PUSH1 0x4 ADD PUSH2 0xD7D SWAP4 SWAP3 SWAP2 SWAP1 PUSH2 0x128B JUMP JUMPDEST PUSH1 0x0 PUSH1 0x40 MLOAD DUP1 DUP4 SUB DUP2 PUSH1 0x0 DUP8 DUP1 EXTCODESIZE ISZERO DUP1 ISZERO PUSH2 0xD97 JUMPI PUSH1 0x0 DUP1 REVERT JUMPDEST POP GAS CALL ISZERO DUP1 ISZERO PUSH2 0xDAB JUMPI RETURNDATASIZE PUSH1 0x0 DUP1 RETURNDATACOPY RETURNDATASIZE PUSH1 0x0 REVERT JUMPDEST POP POP POP POP PUSH1 0x0 DUP4 PUSH20 0xFFFFFFFFFFFFFFFFFFFFFFFFFFFFFFFFFFFFFFFF AND DUP4 PUSH1 0x40 MLOAD PUSH2 0xDD5 SWAP1 PUSH2 0x11D2 JUMP JUMPDEST PUSH1 0x0 PUSH1 0x40 MLOAD DUP1 DUP4 SUB DUP2 DUP6 DUP8 GAS CALL SWAP3 POP POP POP RETURNDATASIZE DUP1 PUSH1 0x0 DUP2 EQ PUSH2 0xE12 JUMPI PUSH1 0x40 MLOAD SWAP2 POP PUSH1 0x1F NOT PUSH1 0x3F RETURNDATASIZE ADD AND DUP3 ADD PUSH1 0x40 MSTORE RETURNDATASIZE DUP3 MSTORE RETURNDATASIZE PUSH1 0x0 PUSH1 0x20 DUP5 ADD RETURNDATACOPY PUSH2 0xE17 JUMP JUMPDEST PUSH1 0x60 SWAP2 POP JUMPDEST POP POP SWAP1 POP DUP1 PUSH2 0xE5B JUMPI PUSH1 0x40 MLOAD PUSH32 0x8C379A000000000000000000000000000000000000000000000000000000000 DUP2 MSTORE PUSH1 0x4 ADD PUSH2 0xE52 SWAP1 PUSH2 0x13D8 JUMP JUMPDEST PUSH1 0x40 MLOAD DUP1 SWAP2 SUB SWAP1 REVERT JUMPDEST PUSH1 0x0 PUSH32 0x0 PUSH20 0xFFFFFFFFFFFFFFFFFFFFFFFFFFFFFFFFFFFFFFFF AND DUP4 PUSH1 0x40 MLOAD PUSH2 0xEA1 SWAP1 PUSH2 0x11D2 JUMP JUMPDEST PUSH1 0x0 PUSH1 0x40 MLOAD DUP1 DUP4 SUB DUP2 DUP6 DUP8 GAS CALL SWAP3 POP POP POP RETURNDATASIZE DUP1 PUSH1 0x0 DUP2 EQ PUSH2 0xEDE JUMPI PUSH1 0x40 MLOAD SWAP2 POP PUSH1 0x1F NOT PUSH1 0x3F RETURNDATASIZE ADD AND DUP3 ADD PUSH1 0x40 MSTORE RETURNDATASIZE DUP3 MSTORE RETURNDATASIZE PUSH1 0x0 PUSH1 0x20 DUP5 ADD RETURNDATACOPY PUSH2 0xEE3 JUMP JUMPDEST PUSH1 0x60 SWAP2 POP JUMPDEST POP POP SWAP1 POP DUP1 PUSH2 0xF27 JUMPI PUSH1 0x40 MLOAD PUSH32 0x8C379A000000000000000000000000000000000000000000000000000000000 DUP2 MSTORE PUSH1 0x4 ADD PUSH2 0xF1E SWAP1 PUSH2 0x13D8 JUMP JUMPDEST PUSH1 0x40 MLOAD DUP1 SWAP2 SUB SWAP1 REVERT JUMPDEST POP POP POP POP POP JUMPDEST PUSH1 0x0 PUSH1 0x6 SWAP1 SLOAD SWAP1 PUSH2 0x100 EXP SWAP1 DIV PUSH20 0xFFFFFFFFFFFFFFFFFFFFFFFFFFFFFFFFFFFFFFFF AND PUSH20 0xFFFFFFFFFFFFFFFFFFFFFFFFFFFFFFFFFFFFFFFF AND PUSH32 0x7D7570B046E5EAD3A4F3FBC9FA2445113625A1E79823776146316BAFED6B8CC5 PUSH1 0x1 SLOAD PUSH1 0x40 MLOAD PUSH2 0xF97 SWAP2 SWAP1 PUSH2 0x1418 JUMP JUMPDEST PUSH1 0x40 MLOAD DUP1 SWAP2 SUB SWAP1 LOG2 JUMP JUMPDEST PUSH1 0x0 DUP2 MLOAD SWAP1 POP PUSH2 0xFB0 DUP2 PUSH2 0x179D JUMP JUMPDEST SWAP3 SWAP2 POP POP JUMP JUMPDEST PUSH1 0x0 DUP2 MLOAD SWAP1 POP PUSH2 0xFC5 DUP2 PUSH2 0x17B4 JUMP JUMPDEST SWAP3 SWAP2 POP POP JUMP JUMPDEST PUSH1 0x0 DUP1 PUSH1 0x40 DUP4 DUP6 SUB SLT ISZERO PUSH2 0xFE2 JUMPI PUSH2 0xFE1 PUSH2 0x15FE JUMP JUMPDEST JUMPDEST PUSH1 0x0 PUSH2 0xFF0 DUP6 DUP3 DUP7 ADD PUSH2 0xFA1 JUMP JUMPDEST SWAP3 POP POP PUSH1 0x20 PUSH2 0x1001 DUP6 DUP3 DUP7 ADD PUSH2 0xFB6 JUMP JUMPDEST SWAP2 POP POP SWAP3 POP SWAP3 SWAP1 POP JUMP JUMPDEST PUSH2 0x1014 DUP2 PUSH2 0x1587 JUMP JUMPDEST DUP3 MSTORE POP POP JUMP JUMPDEST PUSH2 0x1023 DUP2 PUSH2 0x152F JUMP JUMPDEST DUP3 MSTORE POP POP JUMP JUMPDEST PUSH2 0x1032 DUP2 PUSH2 0x151D JUMP JUMPDEST DUP3 MSTORE POP POP JUMP JUMPDEST PUSH2 0x1041 DUP2 PUSH2 0x1541 JUMP JUMPDEST DUP3 MSTORE POP POP JUMP JUMPDEST PUSH2 0x1050 DUP2 PUSH2 0x1599 JUMP JUMPDEST DUP3 MSTORE POP POP JUMP JUMPDEST PUSH1 0x0 PUSH2 0x1063 PUSH1 0x1C DUP4 PUSH2 0x1482 JUMP JUMPDEST SWAP2 POP PUSH2 0x106E DUP3 PUSH2 0x1603 JUMP JUMPDEST PUSH1 0x20 DUP3 ADD SWAP1 POP SWAP2 SWAP1 POP JUMP JUMPDEST PUSH1 0x0 PUSH2 0x1086 PUSH1 0x24 DUP4 PUSH2 0x1482 JUMP JUMPDEST SWAP2 POP PUSH2 0x1091 DUP3 PUSH2 0x162C JUMP JUMPDEST PUSH1 0x40 DUP3 ADD SWAP1 POP SWAP2 SWAP1 POP JUMP JUMPDEST PUSH1 0x0 PUSH2 0x10A9 PUSH1 0x1D DUP4 PUSH2 0x1482 JUMP JUMPDEST SWAP2 POP PUSH2 0x10B4 DUP3 PUSH2 0x167B JUMP JUMPDEST PUSH1 0x20 DUP3 ADD SWAP1 POP SWAP2 SWAP1 POP JUMP JUMPDEST PUSH1 0x0 PUSH2 0x10CC PUSH1 0xF DUP4 PUSH2 0x1482 JUMP JUMPDEST SWAP2 POP PUSH2 0x10D7 DUP3 PUSH2 0x16A4 JUMP JUMPDEST PUSH1 0x20 DUP3 ADD SWAP1 POP SWAP2 SWAP1 POP JUMP JUMPDEST PUSH1 0x0 PUSH2 0x10EF PUSH1 0x18 DUP4 PUSH2 0x1482 JUMP JUMPDEST SWAP2 POP PUSH2 0x10FA DUP3 PUSH2 0x16CD JUMP JUMPDEST PUSH1 0x20 DUP3 ADD SWAP1 POP SWAP2 SWAP1 POP JUMP JUMPDEST PUSH1 0x0 PUSH2 0x1112 PUSH1 0x0 DUP4 PUSH2 0x1477 JUMP JUMPDEST SWAP2 POP PUSH2 0x111D DUP3 PUSH2 0x16F6 JUMP JUMPDEST PUSH1 0x0 DUP3 ADD SWAP1 POP SWAP2 SWAP1 POP JUMP JUMPDEST PUSH1 0x0 PUSH2 0x1135 PUSH1 0xB DUP4 PUSH2 0x1482 JUMP JUMPDEST SWAP2 POP PUSH2 0x1140 DUP3 PUSH2 0x16F9 JUMP JUMPDEST PUSH1 0x20 DUP3 ADD SWAP1 POP SWAP2 SWAP1 POP JUMP JUMPDEST PUSH1 0x0 PUSH2 0x1158 PUSH1 0x5 DUP4 PUSH2 0x1482 JUMP JUMPDEST SWAP2 POP PUSH2 0x1163 DUP3 PUSH2 0x1722 JUMP JUMPDEST PUSH1 0x20 DUP3 ADD SWAP1 POP SWAP2 SWAP1 POP JUMP JUMPDEST PUSH1 0x0 PUSH2 0x117B PUSH1 0x12 DUP4 PUSH2 0x1482 JUMP JUMPDEST SWAP2 POP PUSH2 0x1186 DUP3 PUSH2 0x174B JUMP JUMPDEST PUSH1 0x20 DUP3 ADD SWAP1 POP SWAP2 SWAP1 POP JUMP JUMPDEST PUSH1 0x0 PUSH2 0x119E PUSH1 0x9 DUP4 PUSH2 0x1482 JUMP JUMPDEST SWAP2 POP PUSH2 0x11A9 DUP3 PUSH2 0x1774 JUMP JUMPDEST PUSH1 0x20 DUP3 ADD SWAP1 POP SWAP2 SWAP1 POP JUMP JUMPDEST PUSH2 0x11BD DUP2 PUSH2 0x156D JUMP JUMPDEST DUP3 MSTORE POP POP JUMP JUMPDEST PUSH2 0x11CC DUP2 PUSH2 0x1577 JUMP JUMPDEST DUP3 MSTORE POP POP JUMP JUMPDEST PUSH1 0x0 PUSH2 0x11DD DUP3 PUSH2 0x1105 JUMP JUMPDEST SWAP2 POP DUP2 SWAP1 POP SWAP2 SWAP1 POP JUMP JUMPDEST PUSH1 0x0 PUSH1 0x20 DUP3 ADD SWAP1 POP PUSH2 0x11FC PUSH1 0x0 DUP4 ADD DUP5 PUSH2 0x1029 JUMP JUMPDEST SWAP3 SWAP2 POP POP JUMP JUMPDEST PUSH1 0x0 PUSH1 0x20 DUP3 ADD SWAP1 POP PUSH2 0x1217 PUSH1 0x0 DUP4 ADD DUP5 PUSH2 0x101A JUMP JUMPDEST SWAP3 SWAP2 POP POP JUMP JUMPDEST PUSH1 0x0 PUSH1 0x60 DUP3 ADD SWAP1 POP PUSH2 0x1232 PUSH1 0x0 DUP4 ADD DUP7 PUSH2 0x100B JUMP JUMPDEST PUSH2 0x123F PUSH1 0x20 DUP4 ADD DUP6 PUSH2 0x1029 JUMP JUMPDEST PUSH2 0x124C PUSH1 0x40 DUP4 ADD DUP5 PUSH2 0x11B4 JUMP JUMPDEST SWAP5 SWAP4 POP POP POP POP JUMP JUMPDEST PUSH1 0x0 PUSH1 0x60 DUP3 ADD SWAP1 POP PUSH2 0x1269 PUSH1 0x0 DUP4 ADD DUP7 PUSH2 0x1029 JUMP JUMPDEST PUSH2 0x1276 PUSH1 0x20 DUP4 ADD DUP6 PUSH2 0x100B JUMP JUMPDEST PUSH2 0x1283 PUSH1 0x40 DUP4 ADD DUP5 PUSH2 0x11B4 JUMP JUMPDEST SWAP5 SWAP4 POP POP POP POP JUMP JUMPDEST PUSH1 0x0 PUSH1 0x60 DUP3 ADD SWAP1 POP PUSH2 0x12A0 PUSH1 0x0 DUP4 ADD DUP7 PUSH2 0x1029 JUMP JUMPDEST PUSH2 0x12AD PUSH1 0x20 DUP4 ADD DUP6 PUSH2 0x1029 JUMP JUMPDEST PUSH2 0x12BA PUSH1 0x40 DUP4 ADD DUP5 PUSH2 0x11B4 JUMP JUMPDEST SWAP5 SWAP4 POP POP POP POP JUMP JUMPDEST PUSH1 0x0 PUSH1 0x20 DUP3 ADD SWAP1 POP PUSH2 0x12D7 PUSH1 0x0 DUP4 ADD DUP5 PUSH2 0x1038 JUMP JUMPDEST SWAP3 SWAP2 POP POP JUMP JUMPDEST PUSH1 0x0 PUSH1 0x20 DUP3 ADD SWAP1 POP PUSH2 0x12F2 PUSH1 0x0 DUP4 ADD DUP5 PUSH2 0x1047 JUMP JUMPDEST SWAP3 SWAP2 POP POP JUMP JUMPDEST PUSH1 0x0 PUSH1 0x20 DUP3 ADD SWAP1 POP DUP2 DUP2 SUB PUSH1 0x0 DUP4 ADD MSTORE PUSH2 0x1311 DUP2 PUSH2 0x1056 JUMP JUMPDEST SWAP1 POP SWAP2 SWAP1 POP JUMP JUMPDEST PUSH1 0x0 PUSH1 0x20 DUP3 ADD SWAP1 POP DUP2 DUP2 SUB PUSH1 0x0 DUP4 ADD MSTORE PUSH2 0x1331 DUP2 PUSH2 0x1079 JUMP JUMPDEST SWAP1 POP SWAP2 SWAP1 POP JUMP JUMPDEST PUSH1 0x0 PUSH1 0x20 DUP3 ADD SWAP1 POP DUP2 DUP2 SUB PUSH1 0x0 DUP4 ADD MSTORE PUSH2 0x1351 DUP2 PUSH2 0x109C JUMP JUMPDEST SWAP1 POP SWAP2 SWAP1 POP JUMP JUMPDEST PUSH1 0x0 PUSH1 0x20 DUP3 ADD SWAP1 POP DUP2 DUP2 SUB PUSH1 0x0 DUP4 ADD MSTORE PUSH2 0x1371 DUP2 PUSH2 0x10BF JUMP JUMPDEST SWAP1 POP SWAP2 SWAP1 POP JUMP JUMPDEST PUSH1 0x0 PUSH1 0x20 DUP3 ADD SWAP1 POP DUP2 DUP2 SUB PUSH1 0x0 DUP4 ADD MSTORE PUSH2 0x1391 DUP2 PUSH2 0x10E2 JUMP JUMPDEST SWAP1 POP SWAP2 SWAP1 POP JUMP JUMPDEST PUSH1 0x0 PUSH1 0x20 DUP3 ADD SWAP1 POP DUP2 DUP2 SUB PUSH1 0x0 DUP4 ADD MSTORE PUSH2 0x13B1 DUP2 PUSH2 0x1128 JUMP JUMPDEST SWAP1 POP SWAP2 SWAP1 POP JUMP JUMPDEST PUSH1 0x0 PUSH1 0x20 DUP3 ADD SWAP1 POP DUP2 DUP2 SUB PUSH1 0x0 DUP4 ADD MSTORE PUSH2 0x13D1 DUP2 PUSH2 0x114B JUMP JUMPDEST SWAP1 POP SWAP2 SWAP1 POP JUMP JUMPDEST PUSH1 0x0 PUSH1 0x20 DUP3 ADD SWAP1 POP DUP2 DUP2 SUB PUSH1 0x0 DUP4 ADD MSTORE PUSH2 0x13F1 DUP2 PUSH2 0x116E JUMP JUMPDEST SWAP1 POP SWAP2 SWAP1 POP JUMP JUMPDEST PUSH1 0x0 PUSH1 0x20 DUP3 ADD SWAP1 POP DUP2 DUP2 SUB PUSH1 0x0 DUP4 ADD MSTORE PUSH2 0x1411 DUP2 PUSH2 0x1191 JUMP JUMPDEST SWAP1 POP SWAP2 SWAP1 POP JUMP JUMPDEST PUSH1 0x0 PUSH1 0x20 DUP3 ADD SWAP1 POP PUSH2 0x142D PUSH1 0x0 DUP4 ADD DUP5 PUSH2 0x11B4 JUMP JUMPDEST SWAP3 SWAP2 POP POP JUMP JUMPDEST PUSH1 0x0 PUSH1 0x40 DUP3 ADD SWAP1 POP PUSH2 0x1448 PUSH1 0x0 DUP4 ADD DUP6 PUSH2 0x11B4 JUMP JUMPDEST PUSH2 0x1455 PUSH1 0x20 DUP4 ADD DUP5 PUSH2 0x11B4 JUMP JUMPDEST SWAP4 SWAP3 POP POP POP JUMP JUMPDEST PUSH1 0x0 PUSH1 0x20 DUP3 ADD SWAP1 POP PUSH2 0x1471 PUSH1 0x0 DUP4 ADD DUP5 PUSH2 0x11C3 JUMP JUMPDEST SWAP3 SWAP2 POP POP JUMP JUMPDEST PUSH1 0x0 DUP2 SWAP1 POP SWAP3 SWAP2 POP POP JUMP JUMPDEST PUSH1 0x0 DUP3 DUP3 MSTORE PUSH1 0x20 DUP3 ADD SWAP1 POP SWAP3 SWAP2 POP POP JUMP JUMPDEST PUSH1 0x0 PUSH2 0x149E DUP3 PUSH2 0x156D JUMP JUMPDEST SWAP2 POP PUSH2 0x14A9 DUP4 PUSH2 0x156D JUMP JUMPDEST SWAP3 POP DUP3 PUSH32 0xFFFFFFFFFFFFFFFFFFFFFFFFFFFFFFFFFFFFFFFFFFFFFFFFFFFFFFFFFFFFFFFF SUB DUP3 GT ISZERO PUSH2 0x14DE JUMPI PUSH2 0x14DD PUSH2 0x15CF JUMP JUMPDEST JUMPDEST DUP3 DUP3 ADD SWAP1 POP SWAP3 SWAP2 POP POP JUMP JUMPDEST PUSH1 0x0 PUSH2 0x14F4 DUP3 PUSH2 0x156D JUMP JUMPDEST SWAP2 POP PUSH2 0x14FF DUP4 PUSH2 0x156D JUMP JUMPDEST SWAP3 POP DUP3 DUP3 LT ISZERO PUSH2 0x1512 JUMPI PUSH2 0x1511 PUSH2 0x15CF JUMP JUMPDEST JUMPDEST DUP3 DUP3 SUB SWAP1 POP SWAP3 SWAP2 POP POP JUMP JUMPDEST PUSH1 0x0 PUSH2 0x1528 DUP3 PUSH2 0x154D JUMP JUMPDEST SWAP1 POP SWAP2 SWAP1 POP JUMP JUMPDEST PUSH1 0x0 PUSH2 0x153A DUP3 PUSH2 0x154D JUMP JUMPDEST SWAP1 POP SWAP2 SWAP1 POP JUMP JUMPDEST PUSH1 0x0 DUP2 ISZERO ISZERO SWAP1 POP SWAP2 SWAP1 POP JUMP JUMPDEST PUSH1 0x0 PUSH20 0xFFFFFFFFFFFFFFFFFFFFFFFFFFFFFFFFFFFFFFFF DUP3 AND SWAP1 POP SWAP2 SWAP1 POP JUMP JUMPDEST PUSH1 0x0 DUP2 SWAP1 POP SWAP2 SWAP1 POP JUMP JUMPDEST PUSH1 0x0 PUSH4 0xFFFFFFFF DUP3 AND SWAP1 POP SWAP2 SWAP1 POP JUMP JUMPDEST PUSH1 0x0 PUSH2 0x1592 DUP3 PUSH2 0x15AB JUMP JUMPDEST SWAP1 POP SWAP2 SWAP1 POP JUMP JUMPDEST PUSH1 0x0 PUSH2 0x15A4 DUP3 PUSH2 0x15AB JUMP JUMPDEST SWAP1 POP SWAP2 SWAP1 POP JUMP JUMPDEST PUSH1 0x0 PUSH2 0x15B6 DUP3 PUSH2 0x15BD JUMP JUMPDEST SWAP1 POP SWAP2 SWAP1 POP JUMP JUMPDEST PUSH1 0x0 PUSH2 0x15C8 DUP3 PUSH2 0x154D JUMP JUMPDEST SWAP1 POP SWAP2 SWAP1 POP JUMP JUMPDEST PUSH32 0x4E487B7100000000000000000000000000000000000000000000000000000000 PUSH1 0x0 MSTORE PUSH1 0x11 PUSH1 0x4 MSTORE PUSH1 0x24 PUSH1 0x0 REVERT JUMPDEST PUSH1 0x0 DUP1 REVERT JUMPDEST PUSH32 0x68696768657374206269646465722063616E7420776974686472617700000000 PUSH1 0x0 DUP3 ADD MSTORE POP JUMP JUMPDEST PUSH32 0x6F6E6C7920616D6F756E742067726561746572207468616E2068696768657374 PUSH1 0x0 DUP3 ADD MSTORE PUSH32 0x2062696400000000000000000000000000000000000000000000000000000000 PUSH1 0x20 DUP3 ADD MSTORE POP JUMP JUMPDEST PUSH32 0x6F6E6C792073656C6C65722063616E2073746172742061756374696F6E000000 PUSH1 0x0 DUP3 ADD MSTORE POP JUMP JUMPDEST PUSH32 0x616C726561647920737461727465640000000000000000000000000000000000 PUSH1 0x0 DUP3 ADD MSTORE POP JUMP JUMPDEST PUSH32 0x6E6F206269642066726F6D207468697320616464726573730000000000000000 PUSH1 0x0 DUP3 ADD MSTORE POP JUMP JUMPDEST POP JUMP JUMPDEST PUSH32 0x6E6F742073746172746564000000000000000000000000000000000000000000 PUSH1 0x0 DUP3 ADD MSTORE POP JUMP JUMPDEST PUSH32 0x656E646564000000000000000000000000000000000000000000000000000000 PUSH1 0x0 DUP3 ADD MSTORE POP JUMP JUMPDEST PUSH32 0x7472616E73616374696F6E206661696C65640000000000000000000000000000 PUSH1 0x0 DUP3 ADD MSTORE POP JUMP JUMPDEST PUSH32 0x6E6F7420656E6465640000000000000000000000000000000000000000000000 PUSH1 0x0 DUP3 ADD MSTORE POP JUMP JUMPDEST PUSH2 0x17A6 DUP2 PUSH2 0x151D JUMP JUMPDEST DUP2 EQ PUSH2 0x17B1 JUMPI PUSH1 0x0 DUP1 REVERT JUMPDEST POP JUMP JUMPDEST PUSH2 0x17BD DUP2 PUSH2 0x156D JUMP JUMPDEST DUP2 EQ PUSH2 0x17C8 JUMPI PUSH1 0x0 DUP1 REVERT JUMPDEST POP JUMP INVALID LOG2 PUSH5 0x6970667358 0x22 SLT KECCAK256 DUP1 0xE9 DUP14 0xE0 EQ 0xDF SDIV LT 0xE6 0xC3 0x24 PUSH28 0xA56745ED6D6D86E405388C66DEF5F67D7DCDC5E164736F6C63430008 SMOD STOP CALLER PUSH2 0x160 PUSH1 0x40 MSTORE CALLVALUE DUP1 ISZERO PUSH3 0x12 JUMPI PUSH1 0x0 DUP1 REVERT JUMPDEST POP PUSH1 0x40 MLOAD PUSH3 0x10B2 CODESIZE SUB DUP1 PUSH3 0x10B2 DUP4 CODECOPY DUP2 DUP2 ADD PUSH1 0x40 MSTORE DUP2 ADD SWAP1 PUSH3 0x38 SWAP2 SWAP1 PUSH3 0x170 JUMP JUMPDEST PUSH3 0x3F480 DUP3 PUSH3 0x49 SWAP2 SWAP1 PUSH3 0x2AF JUMP JUMPDEST DUP4 LT ISZERO PUSH3 0x8E JUMPI PUSH1 0x40 MLOAD PUSH32 0x8C379A000000000000000000000000000000000000000000000000000000000 DUP2 MSTORE PUSH1 0x4 ADD PUSH3 0x85 SWAP1 PUSH3 0x21F JUMP JUMPDEST PUSH1 0x40 MLOAD DUP1 SWAP2 SUB SWAP1 REVERT JUMPDEST DUP5 PUSH20 0xFFFFFFFFFFFFFFFFFFFFFFFFFFFFFFFFFFFFFFFF AND PUSH1 0x80 DUP2 PUSH20 0xFFFFFFFFFFFFFFFFFFFFFFFFFFFFFFFFFFFFFFFF AND PUSH1 0x60 SHL DUP2 MSTORE POP POP DUP4 PUSH1 0xA0 DUP2 DUP2 MSTORE POP POP DUP3 PUSH1 0xE0 DUP2 DUP2 MSTORE POP POP DUP2 PUSH2 0x140 DUP2 DUP2 MSTORE POP POP DUP1 PUSH20 0xFFFFFFFFFFFFFFFFFFFFFFFFFFFFFFFFFFFFFFFF AND PUSH1 0xC0 DUP2 PUSH20 0xFFFFFFFFFFFFFFFFFFFFFFFFFFFFFFFFFFFFFFFF AND PUSH1 0x60 SHL DUP2 MSTORE POP POP TIMESTAMP PUSH2 0x100 DUP2 DUP2 MSTORE POP POP PUSH3 0x3F480 TIMESTAMP PUSH3 0x12F SWAP2 SWAP1 PUSH3 0x252 JUMP JUMPDEST PUSH2 0x120 DUP2 DUP2 MSTORE POP POP POP POP POP POP POP PUSH3 0x3DF JUMP JUMPDEST PUSH1 0x0 DUP2 MLOAD SWAP1 POP PUSH3 0x153 DUP2 PUSH3 0x3AB JUMP JUMPDEST SWAP3 SWAP2 POP POP JUMP JUMPDEST PUSH1 0x0 DUP2 MLOAD SWAP1 POP PUSH3 0x16A DUP2 PUSH3 0x3C5 JUMP JUMPDEST SWAP3 SWAP2 POP POP JUMP JUMPDEST PUSH1 0x0 DUP1 PUSH1 0x0 DUP1 PUSH1 0x0 PUSH1 0xA0 DUP7 DUP9 SUB SLT ISZERO PUSH3 0x18F JUMPI PUSH3 0x18E PUSH3 0x37D JUMP JUMPDEST JUMPDEST PUSH1 0x0 PUSH3 0x19F DUP9 DUP3 DUP10 ADD PUSH3 0x142 JUMP JUMPDEST SWAP6 POP POP PUSH1 0x20 PUSH3 0x1B2 DUP9 DUP3 DUP10 ADD PUSH3 0x159 JUMP JUMPDEST SWAP5 POP POP PUSH1 0x40 PUSH3 0x1C5 DUP9 DUP3 DUP10 ADD PUSH3 0x159 JUMP JUMPDEST SWAP4 POP POP PUSH1 0x60 PUSH3 0x1D8 DUP9 DUP3 DUP10 ADD PUSH3 0x159 JUMP JUMPDEST SWAP3 POP POP PUSH1 0x80 PUSH3 0x1EB DUP9 DUP3 DUP10 ADD PUSH3 0x142 JUMP JUMPDEST SWAP2 POP POP SWAP3 SWAP6 POP SWAP3 SWAP6 SWAP1 SWAP4 POP JUMP JUMPDEST PUSH1 0x0 PUSH3 0x207 PUSH1 0x1D DUP4 PUSH3 0x241 JUMP JUMPDEST SWAP2 POP PUSH3 0x214 DUP3 PUSH3 0x382 JUMP JUMPDEST PUSH1 0x20 DUP3 ADD SWAP1 POP SWAP2 SWAP1 POP JUMP JUMPDEST PUSH1 0x0 PUSH1 0x20 DUP3 ADD SWAP1 POP DUP2 DUP2 SUB PUSH1 0x0 DUP4 ADD MSTORE PUSH3 0x23A DUP2 PUSH3 0x1F8 JUMP JUMPDEST SWAP1 POP SWAP2 SWAP1 POP JUMP JUMPDEST PUSH1 0x0 DUP3 DUP3 MSTORE PUSH1 0x20 DUP3 ADD SWAP1 POP SWAP3 SWAP2 POP POP JUMP JUMPDEST PUSH1 0x0 PUSH3 0x25F DUP3 PUSH3 0x344 JUMP JUMPDEST SWAP2 POP PUSH3 0x26C DUP4 PUSH3 0x344 JUMP JUMPDEST SWAP3 POP DUP3 PUSH32 0xFFFFFFFFFFFFFFFFFFFFFFFFFFFFFFFFFFFFFFFFFFFFFFFFFFFFFFFFFFFFFFFF SUB DUP3 GT ISZERO PUSH3 0x2A4 JUMPI PUSH3 0x2A3 PUSH3 0x34E JUMP JUMPDEST JUMPDEST DUP3 DUP3 ADD SWAP1 POP SWAP3 SWAP2 POP POP JUMP JUMPDEST PUSH1 0x0 PUSH3 0x2BC DUP3 PUSH3 0x344 JUMP JUMPDEST SWAP2 POP PUSH3 0x2C9 DUP4 PUSH3 0x344 JUMP JUMPDEST SWAP3 POP DUP2 PUSH32 0xFFFFFFFFFFFFFFFFFFFFFFFFFFFFFFFFFFFFFFFFFFFFFFFFFFFFFFFFFFFFFFFF DIV DUP4 GT DUP3 ISZERO ISZERO AND ISZERO PUSH3 0x305 JUMPI PUSH3 0x304 PUSH3 0x34E JUMP JUMPDEST JUMPDEST DUP3 DUP3 MUL SWAP1 POP SWAP3 SWAP2 POP POP JUMP JUMPDEST PUSH1 0x0 PUSH3 0x31D DUP3 PUSH3 0x324 JUMP JUMPDEST SWAP1 POP SWAP2 SWAP1 POP JUMP JUMPDEST PUSH1 0x0 PUSH20 0xFFFFFFFFFFFFFFFFFFFFFFFFFFFFFFFFFFFFFFFF DUP3 AND SWAP1 POP SWAP2 SWAP1 POP JUMP JUMPDEST PUSH1 0x0 DUP2 SWAP1 POP SWAP2 SWAP1 POP JUMP JUMPDEST PUSH32 0x4E487B7100000000000000000000000000000000000000000000000000000000 PUSH1 0x0 MSTORE PUSH1 0x11 PUSH1 0x4 MSTORE PUSH1 0x24 PUSH1 0x0 REVERT JUMPDEST PUSH1 0x0 DUP1 REVERT JUMPDEST PUSH32 0x7374617274696E67207072696365203C20646973636F756E7452617465000000 PUSH1 0x0 DUP3 ADD MSTORE POP JUMP JUMPDEST PUSH3 0x3B6 DUP2 PUSH3 0x310 JUMP JUMPDEST DUP2 EQ PUSH3 0x3C2 JUMPI PUSH1 0x0 DUP1 REVERT JUMPDEST POP JUMP JUMPDEST PUSH3 0x3D0 DUP2 PUSH3 0x344 JUMP JUMPDEST DUP2 EQ PUSH3 0x3DC JUMPI PUSH1 0x0 DUP1 REVERT JUMPDEST POP JUMP JUMPDEST PUSH1 0x80 MLOAD PUSH1 0x60 SHR PUSH1 0xA0 MLOAD PUSH1 0xC0 MLOAD PUSH1 0x60 SHR PUSH1 0xE0 MLOAD PUSH2 0x100 MLOAD PUSH2 0x120 MLOAD PUSH2 0x140 MLOAD PUSH2 0xC2C PUSH3 0x486 PUSH1 0x0 CODECOPY PUSH1 0x0 DUP2 DUP2 PUSH2 0x28F ADD MSTORE PUSH2 0x74D ADD MSTORE PUSH1 0x0 DUP2 DUP2 PUSH2 0x237 ADD MSTORE PUSH2 0x2EF ADD MSTORE PUSH1 0x0 DUP2 DUP2 PUSH2 0x25E ADD MSTORE PUSH2 0x705 ADD MSTORE PUSH1 0x0 DUP2 DUP2 PUSH2 0x2BD ADD MSTORE PUSH2 0x729 ADD MSTORE PUSH1 0x0 DUP2 DUP2 PUSH2 0x1EF ADD MSTORE DUP2 DUP2 PUSH2 0x3DC ADD MSTORE PUSH2 0x6A8 ADD MSTORE PUSH1 0x0 DUP2 DUP2 PUSH2 0x3FE ADD MSTORE DUP2 DUP2 PUSH2 0x56A ADD MSTORE PUSH2 0x6E1 ADD MSTORE PUSH1 0x0 DUP2 DUP2 PUSH2 0x213 ADD MSTORE DUP2 DUP2 PUSH2 0x3A0 ADD MSTORE PUSH2 0x52E ADD MSTORE PUSH2 0xC2C PUSH1 0x0 RETURN INVALID PUSH1 0x80 PUSH1 0x40 MSTORE PUSH1 0x4 CALLDATASIZE LT PUSH2 0x86 JUMPI PUSH1 0x0 CALLDATALOAD PUSH1 0xE0 SHR DUP1 PUSH4 0xA6F2AE3A GT PUSH2 0x59 JUMPI DUP1 PUSH4 0xA6F2AE3A EQ PUSH2 0x137 JUMPI DUP1 PUSH4 0xC6BC5182 EQ PUSH2 0x141 JUMPI DUP1 PUSH4 0xC7446565 EQ PUSH2 0x16C JUMPI DUP1 PUSH4 0xD6FBF202 EQ PUSH2 0x197 JUMPI DUP1 PUSH4 0xE6C0E6D5 EQ PUSH2 0x1C2 JUMPI PUSH2 0x86 JUMP JUMPDEST DUP1 PUSH4 0x8551A53 EQ PUSH2 0x8B JUMPI DUP1 PUSH4 0x47CCCA02 EQ PUSH2 0xB6 JUMPI DUP1 PUSH4 0x8622A689 EQ PUSH2 0xE1 JUMPI DUP1 PUSH4 0x98D5FDCA EQ PUSH2 0x10C JUMPI JUMPDEST PUSH1 0x0 DUP1 REVERT JUMPDEST CALLVALUE DUP1 ISZERO PUSH2 0x97 JUMPI PUSH1 0x0 DUP1 REVERT JUMPDEST POP PUSH2 0xA0 PUSH2 0x1ED JUMP JUMPDEST PUSH1 0x40 MLOAD PUSH2 0xAD SWAP2 SWAP1 PUSH2 0x8C5 JUMP JUMPDEST PUSH1 0x40 MLOAD DUP1 SWAP2 SUB SWAP1 RETURN JUMPDEST CALLVALUE DUP1 ISZERO PUSH2 0xC2 JUMPI PUSH1 0x0 DUP1 REVERT JUMPDEST POP PUSH2 0xCB PUSH2 0x211 JUMP JUMPDEST PUSH1 0x40 MLOAD PUSH2 0xD8 SWAP2 SWAP1 PUSH2 0x917 JUMP JUMPDEST PUSH1 0x40 MLOAD DUP1 SWAP2 SUB SWAP1 RETURN JUMPDEST CALLVALUE DUP1 ISZERO PUSH2 0xED JUMPI PUSH1 0x0 DUP1 REVERT JUMPDEST POP PUSH2 0xF6 PUSH2 0x235 JUMP JUMPDEST PUSH1 0x40 MLOAD PUSH2 0x103 SWAP2 SWAP1 PUSH2 0x992 JUMP JUMPDEST PUSH1 0x40 MLOAD DUP1 SWAP2 SUB SWAP1 RETURN JUMPDEST CALLVALUE DUP1 ISZERO PUSH2 0x118 JUMPI PUSH1 0x0 DUP1 REVERT JUMPDEST POP PUSH2 0x121 PUSH2 0x259 JUMP JUMPDEST PUSH1 0x40 MLOAD PUSH2 0x12E SWAP2 SWAP1 PUSH2 0x992 JUMP JUMPDEST PUSH1 0x40 MLOAD DUP1 SWAP2 SUB SWAP1 RETURN JUMPDEST PUSH2 0x13F PUSH2 0x2ED JUMP JUMPDEST STOP JUMPDEST CALLVALUE DUP1 ISZERO PUSH2 0x14D JUMPI PUSH1 0x0 DUP1 REVERT JUMPDEST POP PUSH2 0x156 PUSH2 0x6DF JUMP JUMPDEST PUSH1 0x40 MLOAD PUSH2 0x163 SWAP2 SWAP1 PUSH2 0x992 JUMP JUMPDEST PUSH1 0x40 MLOAD DUP1 SWAP2 SUB SWAP1 RETURN JUMPDEST CALLVALUE DUP1 ISZERO PUSH2 0x178 JUMPI PUSH1 0x0 DUP1 REVERT JUMPDEST POP PUSH2 0x181 PUSH2 0x703 JUMP JUMPDEST PUSH1 0x40 MLOAD PUSH2 0x18E SWAP2 SWAP1 PUSH2 0x992 JUMP JUMPDEST PUSH1 0x40 MLOAD DUP1 SWAP2 SUB SWAP1 RETURN JUMPDEST CALLVALUE DUP1 ISZERO PUSH2 0x1A3 JUMPI PUSH1 0x0 DUP1 REVERT JUMPDEST POP PUSH2 0x1AC PUSH2 0x727 JUMP JUMPDEST PUSH1 0x40 MLOAD PUSH2 0x1B9 SWAP2 SWAP1 PUSH2 0x992 JUMP JUMPDEST PUSH1 0x40 MLOAD DUP1 SWAP2 SUB SWAP1 RETURN JUMPDEST CALLVALUE DUP1 ISZERO PUSH2 0x1CE JUMPI PUSH1 0x0 DUP1 REVERT JUMPDEST POP PUSH2 0x1D7 PUSH2 0x74B JUMP JUMPDEST PUSH1 0x40 MLOAD PUSH2 0x1E4 SWAP2 SWAP1 PUSH2 0x992 JUMP JUMPDEST PUSH1 0x40 MLOAD DUP1 SWAP2 SUB SWAP1 RETURN JUMPDEST PUSH32 0x0 DUP2 JUMP JUMPDEST PUSH32 0x0 DUP2 JUMP JUMPDEST PUSH32 0x0 DUP2 JUMP JUMPDEST PUSH1 0x0 DUP1 PUSH32 0x0 TIMESTAMP PUSH2 0x288 SWAP2 SWAP1 PUSH2 0xA4C JUMP JUMPDEST SWAP1 POP PUSH1 0x0 DUP2 PUSH32 0x0 PUSH2 0x2B8 SWAP2 SWAP1 PUSH2 0x9F2 JUMP JUMPDEST SWAP1 POP DUP1 PUSH32 0x0 PUSH2 0x2E6 SWAP2 SWAP1 PUSH2 0xA4C JUMP JUMPDEST SWAP3 POP POP POP SWAP1 JUMP JUMPDEST PUSH32 0x0 TIMESTAMP LT PUSH2 0x34F JUMPI PUSH1 0x40 MLOAD PUSH32 0x8C379A000000000000000000000000000000000000000000000000000000000 DUP2 MSTORE PUSH1 0x4 ADD PUSH2 0x346 SWAP1 PUSH2 0x952 JUMP JUMPDEST PUSH1 0x40 MLOAD DUP1 SWAP2 SUB SWAP1 REVERT JUMPDEST PUSH1 0x0 PUSH2 0x359 PUSH2 0x259 JUMP JUMPDEST SWAP1 POP DUP1 CALLVALUE LT ISZERO PUSH2 0x39E JUMPI PUSH1 0x40 MLOAD PUSH32 0x8C379A000000000000000000000000000000000000000000000000000000000 DUP2 MSTORE PUSH1 0x4 ADD PUSH2 0x395 SWAP1 PUSH2 0x932 JUMP JUMPDEST PUSH1 0x40 MLOAD DUP1 SWAP2 SUB SWAP1 REVERT JUMPDEST PUSH32 0x0 PUSH20 0xFFFFFFFFFFFFFFFFFFFFFFFFFFFFFFFFFFFFFFFF AND PUSH4 0x23B872DD PUSH32 0x0 CALLER PUSH32 0x0 PUSH1 0x40 MLOAD DUP5 PUSH4 0xFFFFFFFF AND PUSH1 0xE0 SHL DUP2 MSTORE PUSH1 0x4 ADD PUSH2 0x43B SWAP4 SWAP3 SWAP2 SWAP1 PUSH2 0x8E0 JUMP JUMPDEST PUSH1 0x0 PUSH1 0x40 MLOAD DUP1 DUP4 SUB DUP2 PUSH1 0x0 DUP8 DUP1 EXTCODESIZE ISZERO DUP1 ISZERO PUSH2 0x455 JUMPI PUSH1 0x0 DUP1 REVERT JUMPDEST POP GAS CALL ISZERO DUP1 ISZERO PUSH2 0x469 JUMPI RETURNDATASIZE PUSH1 0x0 DUP1 RETURNDATACOPY RETURNDATASIZE PUSH1 0x0 REVERT JUMPDEST POP POP POP POP PUSH1 0x0 DUP2 CALLVALUE PUSH2 0x47B SWAP2 SWAP1 PUSH2 0xA4C JUMP JUMPDEST SWAP1 POP PUSH1 0x0 CALLER PUSH20 0xFFFFFFFFFFFFFFFFFFFFFFFFFFFFFFFFFFFFFFFF AND DUP3 PUSH1 0x40 MLOAD PUSH2 0x4A3 SWAP1 PUSH2 0x8B0 JUMP JUMPDEST PUSH1 0x0 PUSH1 0x40 MLOAD DUP1 DUP4 SUB DUP2 DUP6 DUP8 GAS CALL SWAP3 POP POP POP RETURNDATASIZE DUP1 PUSH1 0x0 DUP2 EQ PUSH2 0x4E0 JUMPI PUSH1 0x40 MLOAD SWAP2 POP PUSH1 0x1F NOT PUSH1 0x3F RETURNDATASIZE ADD AND DUP3 ADD PUSH1 0x40 MSTORE RETURNDATASIZE DUP3 MSTORE RETURNDATASIZE PUSH1 0x0 PUSH1 0x20 DUP5 ADD RETURNDATACOPY PUSH2 0x4E5 JUMP JUMPDEST PUSH1 0x60 SWAP2 POP JUMPDEST POP POP SWAP1 POP DUP1 PUSH2 0x529 JUMPI PUSH1 0x40 MLOAD PUSH32 0x8C379A000000000000000000000000000000000000000000000000000000000 DUP2 MSTORE PUSH1 0x4 ADD PUSH2 0x520 SWAP1 PUSH2 0x972 JUMP JUMPDEST PUSH1 0x40 MLOAD DUP1 SWAP2 SUB SWAP1 REVERT JUMPDEST PUSH1 0x0 DUP1 PUSH32 0x0 PUSH20 0xFFFFFFFFFFFFFFFFFFFFFFFFFFFFFFFFFFFFFFFF AND PUSH4 0x2A55205A PUSH32 0x0 DUP8 PUSH1 0x40 MLOAD DUP4 PUSH4 0xFFFFFFFF AND PUSH1 0xE0 SHL DUP2 MSTORE PUSH1 0x4 ADD PUSH2 0x5A7 SWAP3 SWAP2 SWAP1 PUSH2 0x9AD JUMP JUMPDEST PUSH1 0x40 DUP1 MLOAD DUP1 DUP4 SUB DUP2 DUP7 DUP1 EXTCODESIZE ISZERO DUP1 ISZERO PUSH2 0x5BE JUMPI PUSH1 0x0 DUP1 REVERT JUMPDEST POP GAS STATICCALL ISZERO DUP1 ISZERO PUSH2 0x5D2 JUMPI RETURNDATASIZE PUSH1 0x0 DUP1 RETURNDATACOPY RETURNDATASIZE PUSH1 0x0 REVERT JUMPDEST POP POP POP POP PUSH1 0x40 MLOAD RETURNDATASIZE PUSH1 0x1F NOT PUSH1 0x1F DUP3 ADD AND DUP3 ADD DUP1 PUSH1 0x40 MSTORE POP DUP2 ADD SWAP1 PUSH2 0x5F6 SWAP2 SWAP1 PUSH2 0x799 JUMP JUMPDEST SWAP2 POP SWAP2 POP PUSH1 0x0 DUP3 PUSH20 0xFFFFFFFFFFFFFFFFFFFFFFFFFFFFFFFFFFFFFFFF AND DUP3 PUSH1 0x40 MLOAD PUSH2 0x620 SWAP1 PUSH2 0x8B0 JUMP JUMPDEST PUSH1 0x0 PUSH1 0x40 MLOAD DUP1 DUP4 SUB DUP2 DUP6 DUP8 GAS CALL SWAP3 POP POP POP RETURNDATASIZE DUP1 PUSH1 0x0 DUP2 EQ PUSH2 0x65D JUMPI PUSH1 0x40 MLOAD SWAP2 POP PUSH1 0x1F NOT PUSH1 0x3F RETURNDATASIZE ADD AND DUP3 ADD PUSH1 0x40 MSTORE RETURNDATASIZE DUP3 MSTORE RETURNDATASIZE PUSH1 0x0 PUSH1 0x20 DUP5 ADD RETURNDATACOPY PUSH2 0x662 JUMP JUMPDEST PUSH1 0x60 SWAP2 POP JUMPDEST POP POP SWAP1 POP DUP1 PUSH2 0x6A6 JUMPI PUSH1 0x40 MLOAD PUSH32 0x8C379A000000000000000000000000000000000000000000000000000000000 DUP2 MSTORE PUSH1 0x4 ADD PUSH2 0x69D SWAP1 PUSH2 0x972 JUMP JUMPDEST PUSH1 0x40 MLOAD DUP1 SWAP2 SUB SWAP1 REVERT JUMPDEST PUSH32 0x0 PUSH20 0xFFFFFFFFFFFFFFFFFFFFFFFFFFFFFFFFFFFFFFFF AND SELFDESTRUCT JUMPDEST PUSH32 0x0 DUP2 JUMP JUMPDEST PUSH32 0x0 DUP2 JUMP JUMPDEST PUSH32 0x0 DUP2 JUMP JUMPDEST PUSH32 0x0 DUP2 JUMP JUMPDEST PUSH1 0x0 DUP2 MLOAD SWAP1 POP PUSH2 0x77E DUP2 PUSH2 0xBC8 JUMP JUMPDEST SWAP3 SWAP2 POP POP JUMP JUMPDEST PUSH1 0x0 DUP2 MLOAD SWAP1 POP PUSH2 0x793 DUP2 PUSH2 0xBDF JUMP JUMPDEST SWAP3 SWAP2 POP POP JUMP JUMPDEST PUSH1 0x0 DUP1 PUSH1 0x40 DUP4 DUP6 SUB SLT ISZERO PUSH2 0x7B0 JUMPI PUSH2 0x7AF PUSH2 0xB45 JUMP JUMPDEST JUMPDEST PUSH1 0x0 PUSH2 0x7BE DUP6 DUP3 DUP7 ADD PUSH2 0x76F JUMP JUMPDEST SWAP3 POP POP PUSH1 0x20 PUSH2 0x7CF DUP6 DUP3 DUP7 ADD PUSH2 0x784 JUMP JUMPDEST SWAP2 POP POP SWAP3 POP SWAP3 SWAP1 POP JUMP JUMPDEST PUSH2 0x7E2 DUP2 PUSH2 0xACE JUMP JUMPDEST DUP3 MSTORE POP POP JUMP JUMPDEST PUSH2 0x7F1 DUP2 PUSH2 0xA92 JUMP JUMPDEST DUP3 MSTORE POP POP JUMP JUMPDEST PUSH2 0x800 DUP2 PUSH2 0xA80 JUMP JUMPDEST DUP3 MSTORE POP POP JUMP JUMPDEST PUSH2 0x80F DUP2 PUSH2 0xAE0 JUMP JUMPDEST DUP3 MSTORE POP POP JUMP JUMPDEST PUSH1 0x0 PUSH2 0x822 PUSH1 0x13 DUP4 PUSH2 0x9E1 JUMP JUMPDEST SWAP2 POP PUSH2 0x82D DUP3 PUSH2 0xB4A JUMP JUMPDEST PUSH1 0x20 DUP3 ADD SWAP1 POP SWAP2 SWAP1 POP JUMP JUMPDEST PUSH1 0x0 PUSH2 0x845 PUSH1 0x0 DUP4 PUSH2 0x9D6 JUMP JUMPDEST SWAP2 POP PUSH2 0x850 DUP3 PUSH2 0xB73 JUMP JUMPDEST PUSH1 0x0 DUP3 ADD SWAP1 POP SWAP2 SWAP1 POP JUMP JUMPDEST PUSH1 0x0 PUSH2 0x868 PUSH1 0xF DUP4 PUSH2 0x9E1 JUMP JUMPDEST SWAP2 POP PUSH2 0x873 DUP3 PUSH2 0xB76 JUMP JUMPDEST PUSH1 0x20 DUP3 ADD SWAP1 POP SWAP2 SWAP1 POP JUMP JUMPDEST PUSH1 0x0 PUSH2 0x88B PUSH1 0x12 DUP4 PUSH2 0x9E1 JUMP JUMPDEST SWAP2 POP PUSH2 0x896 DUP3 PUSH2 0xB9F JUMP JUMPDEST PUSH1 0x20 DUP3 ADD SWAP1 POP SWAP2 SWAP1 POP JUMP JUMPDEST PUSH2 0x8AA DUP2 PUSH2 0xAC4 JUMP JUMPDEST DUP3 MSTORE POP POP JUMP JUMPDEST PUSH1 0x0 PUSH2 0x8BB DUP3 PUSH2 0x838 JUMP JUMPDEST SWAP2 POP DUP2 SWAP1 POP SWAP2 SWAP1 POP JUMP JUMPDEST PUSH1 0x0 PUSH1 0x20 DUP3 ADD SWAP1 POP PUSH2 0x8DA PUSH1 0x0 DUP4 ADD DUP5 PUSH2 0x7E8 JUMP JUMPDEST SWAP3 SWAP2 POP POP JUMP JUMPDEST PUSH1 0x0 PUSH1 0x60 DUP3 ADD SWAP1 POP PUSH2 0x8F5 PUSH1 0x0 DUP4 ADD DUP7 PUSH2 0x7D9 JUMP JUMPDEST PUSH2 0x902 PUSH1 0x20 DUP4 ADD DUP6 PUSH2 0x7F7 JUMP JUMPDEST PUSH2 0x90F PUSH1 0x40 DUP4 ADD DUP5 PUSH2 0x8A1 JUMP JUMPDEST SWAP5 SWAP4 POP POP POP POP JUMP JUMPDEST PUSH1 0x0 PUSH1 0x20 DUP3 ADD SWAP1 POP PUSH2 0x92C PUSH1 0x0 DUP4 ADD DUP5 PUSH2 0x806 JUMP JUMPDEST SWAP3 SWAP2 POP POP JUMP JUMPDEST PUSH1 0x0 PUSH1 0x20 DUP3 ADD SWAP1 POP DUP2 DUP2 SUB PUSH1 0x0 DUP4 ADD MSTORE PUSH2 0x94B DUP2 PUSH2 0x815 JUMP JUMPDEST SWAP1 POP SWAP2 SWAP1 POP JUMP JUMPDEST PUSH1 0x0 PUSH1 0x20 DUP3 ADD SWAP1 POP DUP2 DUP2 SUB PUSH1 0x0 DUP4 ADD MSTORE PUSH2 0x96B DUP2 PUSH2 0x85B JUMP JUMPDEST SWAP1 POP SWAP2 SWAP1 POP JUMP JUMPDEST PUSH1 0x0 PUSH1 0x20 DUP3 ADD SWAP1 POP DUP2 DUP2 SUB PUSH1 0x0 DUP4 ADD MSTORE PUSH2 0x98B DUP2 PUSH2 0x87E JUMP JUMPDEST SWAP1 POP SWAP2 SWAP1 POP JUMP JUMPDEST PUSH1 0x0 PUSH1 0x20 DUP3 ADD SWAP1 POP PUSH2 0x9A7 PUSH1 0x0 DUP4 ADD DUP5 PUSH2 0x8A1 JUMP JUMPDEST SWAP3 SWAP2 POP POP JUMP JUMPDEST PUSH1 0x0 PUSH1 0x40 DUP3 ADD SWAP1 POP PUSH2 0x9C2 PUSH1 0x0 DUP4 ADD DUP6 PUSH2 0x8A1 JUMP JUMPDEST PUSH2 0x9CF PUSH1 0x20 DUP4 ADD DUP5 PUSH2 0x8A1 JUMP JUMPDEST SWAP4 SWAP3 POP POP POP JUMP JUMPDEST PUSH1 0x0 DUP2 SWAP1 POP SWAP3 SWAP2 POP POP JUMP JUMPDEST PUSH1 0x0 DUP3 DUP3 MSTORE PUSH1 0x20 DUP3 ADD SWAP1 POP SWAP3 SWAP2 POP POP JUMP JUMPDEST PUSH1 0x0 PUSH2 0x9FD DUP3 PUSH2 0xAC4 JUMP JUMPDEST SWAP2 POP PUSH2 0xA08 DUP4 PUSH2 0xAC4 JUMP JUMPDEST SWAP3 POP DUP2 PUSH32 0xFFFFFFFFFFFFFFFFFFFFFFFFFFFFFFFFFFFFFFFFFFFFFFFFFFFFFFFFFFFFFFFF DIV DUP4 GT DUP3 ISZERO ISZERO AND ISZERO PUSH2 0xA41 JUMPI PUSH2 0xA40 PUSH2 0xB16 JUMP JUMPDEST JUMPDEST DUP3 DUP3 MUL SWAP1 POP SWAP3 SWAP2 POP POP JUMP JUMPDEST PUSH1 0x0 PUSH2 0xA57 DUP3 PUSH2 0xAC4 JUMP JUMPDEST SWAP2 POP PUSH2 0xA62 DUP4 PUSH2 0xAC4 JUMP JUMPDEST SWAP3 POP DUP3 DUP3 LT ISZERO PUSH2 0xA75 JUMPI PUSH2 0xA74 PUSH2 0xB16 JUMP JUMPDEST JUMPDEST DUP3 DUP3 SUB SWAP1 POP SWAP3 SWAP2 POP POP JUMP JUMPDEST PUSH1 0x0 PUSH2 0xA8B DUP3 PUSH2 0xAA4 JUMP JUMPDEST SWAP1 POP SWAP2 SWAP1 POP JUMP JUMPDEST PUSH1 0x0 PUSH2 0xA9D DUP3 PUSH2 0xAA4 JUMP JUMPDEST SWAP1 POP SWAP2 SWAP1 POP JUMP JUMPDEST PUSH1 0x0 PUSH20 0xFFFFFFFFFFFFFFFFFFFFFFFFFFFFFFFFFFFFFFFF DUP3 AND SWAP1 POP SWAP2 SWAP1 POP JUMP JUMPDEST PUSH1 0x0 DUP2 SWAP1 POP SWAP2 SWAP1 POP JUMP JUMPDEST PUSH1 0x0 PUSH2 0xAD9 DUP3 PUSH2 0xAF2 JUMP JUMPDEST SWAP1 POP SWAP2 SWAP1 POP JUMP JUMPDEST PUSH1 0x0 PUSH2 0xAEB DUP3 PUSH2 0xAF2 JUMP JUMPDEST SWAP1 POP SWAP2 SWAP1 POP JUMP JUMPDEST PUSH1 0x0 PUSH2 0xAFD DUP3 PUSH2 0xB04 JUMP JUMPDEST SWAP1 POP SWAP2 SWAP1 POP JUMP JUMPDEST PUSH1 0x0 PUSH2 0xB0F DUP3 PUSH2 0xAA4 JUMP JUMPDEST SWAP1 POP SWAP2 SWAP1 POP JUMP JUMPDEST PUSH32 0x4E487B7100000000000000000000000000000000000000000000000000000000 PUSH1 0x0 MSTORE PUSH1 0x11 PUSH1 0x4 MSTORE PUSH1 0x24 PUSH1 0x0 REVERT JUMPDEST PUSH1 0x0 DUP1 REVERT JUMPDEST PUSH32 0x76616C75652073656E74206973206C6F77657200000000000000000000000000 PUSH1 0x0 DUP3 ADD MSTORE POP JUMP JUMPDEST POP JUMP JUMPDEST PUSH32 0x61756374696F6E20657870697265640000000000000000000000000000000000 PUSH1 0x0 DUP3 ADD MSTORE POP JUMP JUMPDEST PUSH32 0x7472616E73616374696F6E206661696C65640000000000000000000000000000 PUSH1 0x0 DUP3 ADD MSTORE POP JUMP JUMPDEST PUSH2 0xBD1 DUP2 PUSH2 0xA80 JUMP JUMPDEST DUP2 EQ PUSH2 0xBDC JUMPI PUSH1 0x0 DUP1 REVERT JUMPDEST POP JUMP JUMPDEST PUSH2 0xBE8 DUP2 PUSH2 0xAC4 JUMP JUMPDEST DUP2 EQ PUSH2 0xBF3 JUMPI PUSH1 0x0 DUP1 REVERT JUMPDEST POP JUMP INVALID LOG2 PUSH5 0x6970667358 0x22 SLT KECCAK256 AND 0xFB OR 0x5D SDIV PUSH18 0xDF80E773DA8E60B2C93442414A817D5906AB SWAP1 PUSH20 0x3358DFEC67064736F6C63430008070033A26469 PUSH17 0x667358221220035D47CF893FE04FCB10AF 0xEA SWAP5 GAS 0xE4 ADDMOD STOP GT 0xD8 LOG0 SWAP1 PUSH18 0x9BE6C4ED48CC03DA35F264736F6C63430008 SMOD STOP CALLER "
		},
		"gasEstimates": {
			"creation": {
				"codeDepositCost": "2564000",
				"executionCost": "2771",
				"totalCost": "2566771"
			},
			"external": {
				"createDutchCampaign(address,uint256,uint256,uint256)": "infinite",
				"createEnglishAuction(address,uint256,uint256)": "infinite",
				"dutchAuctions(address)": "infinite",
				"englishAuctions(address)": "infinite",
				"getDutchAuction()": "2589",
				"getEnglishAuction()": "2699"
			}
		},
		"methodIdentifiers": {
			"createDutchCampaign(address,uint256,uint256,uint256)": "bcda6b9f",
			"createEnglishAuction(address,uint256,uint256)": "9254253e",
			"dutchAuctions(address)": "75c8322f",
			"englishAuctions(address)": "751381e4",
			"getDutchAuction()": "4b2e3ccb",
			"getEnglishAuction()": "fedd6987"
		}
	},
	"abi": [
		{
			"inputs": [
				{
					"internalType": "address",
					"name": "_nft",
					"type": "address"
				},
				{
					"internalType": "uint256",
					"name": "_nftId",
					"type": "uint256"
				},
				{
					"internalType": "uint256",
					"name": "_startingPrice",
					"type": "uint256"
				},
				{
					"internalType": "uint256",
					"name": "_discountRate",
					"type": "uint256"
				}
			],
			"name": "createDutchCampaign",
			"outputs": [],
			"stateMutability": "nonpayable",
			"type": "function"
		},
		{
			"inputs": [
				{
					"internalType": "address",
					"name": "_nft",
					"type": "address"
				},
				{
					"internalType": "uint256",
					"name": "_nftId",
					"type": "uint256"
				},
				{
					"internalType": "uint256",
					"name": "_startingBid",
					"type": "uint256"
				}
			],
			"name": "createEnglishAuction",
			"outputs": [],
			"stateMutability": "nonpayable",
			"type": "function"
		},
		{
			"inputs": [
				{
					"internalType": "address",
					"name": "",
					"type": "address"
				}
			],
			"name": "dutchAuctions",
			"outputs": [
				{
					"internalType": "address",
					"name": "",
					"type": "address"
				}
			],
			"stateMutability": "view",
			"type": "function"
		},
		{
			"inputs": [
				{
					"internalType": "address",
					"name": "",
					"type": "address"
				}
			],
			"name": "englishAuctions",
			"outputs": [
				{
					"internalType": "address",
					"name": "",
					"type": "address"
				}
			],
			"stateMutability": "view",
			"type": "function"
		},
		{
			"inputs": [],
			"name": "getDutchAuction",
			"outputs": [
				{
					"internalType": "address",
					"name": "",
					"type": "address"
				}
			],
			"stateMutability": "view",
			"type": "function"
		},
		{
			"inputs": [],
			"name": "getEnglishAuction",
			"outputs": [
				{
					"internalType": "address",
					"name": "",
					"type": "address"
				}
			],
			"stateMutability": "view",
			"type": "function"
		}
	]
}